:100000000C9486030C94A3030C94A3030C94A303F5
:100010000C94A3030C94A3030C94A3030C94A303C8
:100020000C94A3030C94A3030C94A3030C94E30D6E
:100030000C94A3030C94A3030C94A3030C94A303A8
:100040000C94A3030C94A3030C94A3030C94A30398
:100050000C94A3030C94A3030C94A3030C94A30388
:100060000C94A3030C94A3030001080006040001F0
:100070004500008200004000200D0A436F6E746549
:100080006E742D547970653A206170706C6963618B
:1000900074696F6E2F782D7777772D666F726D2D5F
:1000A00075726C656E636F6465640D0A0D0A0043BA
:1000B0006F6E74656E742D4C656E6774683A2000BF
:1000C0000D0A557365722D4167656E743A20746729
:1000D000722F312E310D0A4163636570743A202A04
:1000E0002F2A0D0A436F6E6E656374696F6E3A2036
:1000F000636C6F73650D0A000D0A0020485454505C
:100100002F312E310D0A486F73743A2000504F532F
:100110005420000D0A557365722D4167656E743A5F
:10012000207467722F312E300D0A4163636570743D
:100130003A20746578742F68746D6C0D0A436F6E85
:100140006E656374696F6E3A20636C6F73650D0A38
:100150000D0A0020485454502F312E310D0A486F9B
:1001600073743A200047455420003C2F613E200024
:100170003E002564002F3F70743D003C6120687292
:1001800065663D2F002F3F63663D313E436F6E66CF
:100190003C2F613E3C62723E003C612068726566A5
:1001A0003D2F003C62723E3C696E7075742074791C
:1001B00070653D7375626D69742076616C75653D1F
:1001C000536176653E3C2F666F726D3E003E0025A2
:1001D000642E25642E25642E256400536572766591
:1001E000723A203C696E70757420747970653D7444
:1001F000657874206E616D653D7369702076616C01
:1002000075653D003E3C62723E0025642E25642EDD
:1002100025642E25640049503A203C696E7075743F
:1002200020747970653D74657874206E616D653DEC
:100230006569702076616C75653D003C696E70750E
:100240007420747970653D68696464656E206E61C0
:100250006D653D63662076616C75653D313E002FAE
:100260003E003C666F726D20616374696F6E3D2F56
:10027000003E4261636B3C2F613E3C62723E003C3B
:100280006120687265663D2F002F3E4261636B3CC2
:100290002F613E003C6120687265663D2F003C6224
:1002A000723E3C696E70757420747970653D73752B
:1002B000626D69742076616C75653D6F6B3E3C2F95
:1002C000666F726D3E003C2F73656C6563743E0013
:1002D0003C6F7074696F6E2073656C6563746564E0
:1002E0002076616C75653D303E303C2F6F707469CF
:1002F0006F6E3E3C6F7074696F6E2076616C7565D1
:100300003D313E313C2F6F7074696F6E3E003C6F23
:100310007074696F6E2076616C75653D303E303C5F
:100320002F6F7074696F6E3E3C6F7074696F6E20D2
:1003300073656C65637465642076616C75653D31C9
:100340003E313C2F6F7074696F6E3E003C73656C7C
:10035000656374206E616D653D643E00223E00451C
:100360007468203C696E70757420747970653D7492
:10037000657874206E616D653D6574682076616C8A
:1003800075653D2200223E3C62723E003C62723E38
:10039000436D64203C696E70757420747970653D9E
:1003A00074657874206E616D653D65636D6420765B
:1003B000616C75653D22003C2F73656C6563743E0E
:1003C000003C6F7074696F6E2076616C75653D32AC
:1003D0003E4144433C2F6F7074696F6E3E003C6F2A
:1003E0007074696F6E2076616C75653D322073653F
:1003F0006C65637465643E4144433C2F6F7074695F
:100400006F6E3E003C6F7074696F6E2076616C7524
:10041000653D3235353E4E433C2F6F7074696F6ECB
:100420003E3C6F7074696F6E2076616C75653D300F
:100430003E496E3C2F6F7074696F6E3E3C6F7074F6
:10044000696F6E2076616C75653D313E4F75743C09
:100450002F6F7074696F6E3E003C6F7074696F6EC1
:100460002076616C75653D3235353E4E433C2F6FCD
:100470007074696F6E3E3C6F7074696F6E20766148
:100480006C75653D302073656C65637465643E49C9
:100490006E3C2F6F7074696F6E3E3C6F7074696F45
:1004A0006E2076616C75653D313E4F75743C2F6FE3
:1004B0007074696F6E3E003C6F7074696F6E207669
:1004C000616C75653D3235353E4E433C2F6F70741F
:1004D000696F6E3E3C6F7074696F6E2076616C75EB
:1004E000653D303E496E3C2F6F7074696F6E3E3CC7
:1004F0006F7074696F6E2076616C75653D31207325
:10050000656C65637465643E4F75743C2F6F7074E1
:10051000696F6E3E003C6F7074696F6E2073656C1E
:1005200065637465642076616C75653D3235353E72
:100530004E433C2F6F7074696F6E3E3C6F707469F0
:100540006F6E2076616C75653D303E496E3C2F6F55
:100550007074696F6E3E3C6F7074696F6E20766167
:100560006C75653D313E4F75743C2F6F7074696FCB
:100570006E3E003C73656C656374206E616D653D15
:100580007074793E003E003C696E70757420747919
:1005900070653D68696464656E206E616D653D706F
:1005A0006E2076616C75653D002F3E003C62723EA8
:1005B0003C666F726D20616374696F6E3D2F004FF2
:1005C0004646004F4E003A303E4F46463C2F613E75
:1005D0000026636D643D002F3F70743D003C612038
:1005E000687265663D2F003A313E4F4E3C2F613EAA
:1005F000200026636D643D002F3F70743D003C6118
:1006000020687265663D2F003C62723E004F464690
:10061000004F4E002F003E4261636B3C2F613E3C19
:1006200062723E003C6120687265663D2F0048544E
:1006300054502F312E302034303120556E61757476
:10064000686F72697A65640D0A436F6E74656E74C3
:100650002D547970653A20746578742F68746D6CC8
:100660000D0A0D0A3C68313E34303120556E6175FB
:1006700074686F72697A65643C2F68313E003C7023
:100680003E55736167653A20687474703A2F2F681D
:100690006F73745F6F725F69702F70617373776FC0
:1006A00072643C2F703E0A002F746573742D687459
:1006B00074702E7068703F70743D002F002F746549
:1006C00073742D687474702E7068700048545450A0
:1006D0002F312E3020323030204F4B0D0A436F6EB9
:1006E00074656E742D547970653A20746578742F32
:1006F00068746D6C0D0A507261676D613A206E6F9F
:100700002D63616368650D0A0D0A000011241FBE88
:10071000CFEFD4E0DEBFCDBF11E0A0E0B1E0E2E971
:10072000FDE302C005900D92AE39B107D9F714E090
:10073000AEE9B1E001C01D92A736B107E1F70E9412
:100740001A100C94C71E0C9400002A98962F9F71C3
:10075000982B9EBD0DB407FEFDCF1EBC0DB407FE49
:10076000FDCF67FF04C01EBC0DB407FEFDCF2A9A63
:100770008EB508952A986F71682B6EBD0DB407FE73
:10078000FDCF4EBD0DB407FEFDCF2A9A0895AC01F2
:10079000FB012A988AE38EBD0DB407FEFDCF9A01B6
:1007A000DF0108C01EBC0DB407FEFDCF2150304054
:1007B0008EB58D9321153105A9F7E40FF51F108231
:1007C0002A9A08959C01FB012A988AE78EBD0DB4F0
:1007D00007FEFDCF08C080818EBD0DB407FEFDCFA2
:1007E00021503040319621153105A9F72A9A0895F4
:1007F0001F93CF93DF93182FC82FD0E0C076D0700F
:1008000080919E0190E0C817D90791F080EA6FE1CE
:1008100043E00E94BA0385E0D595C7958A95E1F734
:1008200080E86FE14C2F0E94BA03107610939E016E
:10083000DF91CF911F9108951F93182F0E94F80305
:1008400080E0612F0E94A5031F9108950F931F93CD
:10085000182F062F0E94F80380E4612F402F0E947A
:10086000BA031F910F910895682F84ED0E9426040A
:1008700082ED61E00E94260488E28A95F1F78AEE13
:100880000E941C0480FDFBCF82ED60E00E942604E4
:1008900089ED0E941C0490E008950F931F93982FF8
:1008A000162F072F84ED692F0E94260486ED612FF5
:1008B0000E94260487ED602F0E94260418E203C0E0
:1008C000812F8A95F1F78AEE0E941C0480FDF8CFF3
:1008D0001F910F910895682F677085E70E94260485
:1008E00008950F931F938C01229A2A9A84B18862EB
:1008F00084B9249A2B9A2D9A80E58CBD8DB58160A0
:100900008DBD8FEF60E04FEF0E94BA0380E090E072
:100910000197F1F71092A00110929F0188E060E02A
:100920000E94260489E060E00E9426048CE060E0DA
:100930000E9426048DE060E00E9426048AE06FEFAA
:100940000E9426048BE069E10E94260484E060E0B6
:100950000E94260485E06AE10E94260486E06FEF8B
:100960000E94260487E06FE10E94260488E360EB82
:100970000E94260488E26FE30E94260489E260E375
:100980000E94260480E369EF0E94260481E367EF5A
:100990000E94260480EC6DE00E94260481EC60E059
:1009A0000E94260480E862EC42E30E94BA0386ECCF
:1009B00062E10E94260487EC6CE00E94260484EC2D
:1009C00062E10E9426048AEC6CED0E9426048BEC06
:1009D00065E00E94260484EEF80160810E942604EE
:1009E00085EEF80161810E94260482EEF8016281A1
:1009F0000E94260483EEF80163810E94260480EEA3
:100A0000F80164810E94260481EEF80165810E944C
:100A1000260480E160E071E00E944D048FE10E94B5
:100A2000F80380E86BE140EC0E94BA0380E86FE1D4
:100A300044E00E94BA031F910F91089582E70E943B
:100A40001C04863008F08F5F089581E10E94340411
:100A500020E0892B09F021E0822F08950F931F9346
:100A6000CF93DF93EC018B010FC08CE10E941C043B
:100A700081FF0AC080E86FE140E80E94BA0380EA83
:100A80006FE140E80E94BA0380E06FE10E94A50395
:100A900083FDEBCF82E060E00E94260483E06AE100
:100AA0000E94260486E06C2F0E9426049E0120509E
:100AB000364E87E0632F0E9426048AE760E040E01C
:100AC0000E94BA03CE01B8010E94E20380E86FE100
:100AD00048E00E94BA03DF91CF911F910F910895D2
:100AE00089E30E941C04811181E008958F929F92F6
:100AF000AF92BF92CF92DF92EF92FF920F931F932C
:100B0000CF93DF935C014B0189E30E941C0488238F
:100B100019F4C0E0D0E070C000919F011091A001D5
:100B200080E0602F0E942604012F110F110B81E03D
:100B3000602F0E9426048AE360E00E94A503182F1C
:100B40008AE360E00E94A503382F20E0E12EFF2415
:100B5000E22AF32AF092A001E0929F018AE360E08A
:100B60000E94A503C82E8AE360E00E94A503D82E48
:100B70008AE360E00E94A503082F10E08AE360E0AA
:100B80000E94A503382F20E0202B312B27FD03C026
:100B9000C0E0D0E011C0CC2DD0E09D2D80E0C82B6E
:100BA000D92BC501019724978C179D0708F4EC01F8
:100BB000CE01B4010E94C70381E0E8168AE1F8067D
:100BC0003CF08CE06FEF0E9426048DE069E10DC0DF
:100BD0006E2D61508CE00E9426040894E108F10813
:100BE0006F2D772767FD7A958DE00E94260480E8B7
:100BF0006EE140E40E94BA03CE01DF91CF911F91D4
:100C00000F91FF90EF90DF90CF90BF90AF909F90AB
:100C10008F900895CF92DF92EF92FF920F931F93E0
:100C2000CF93DF936C01413081F4685070407B01B9
:100C300000E010E0685F7F4F21E130E040E050E0ED
:100C4000E20EF31E041F151F15C0423021F0EE24E2
:100C5000FF2487010FC0685070407B0100E010E066
:100C6000685F7F4F86E090E0A0E0B0E0E80EF91EFC
:100C70000A1F1B1FF601EB0116C0808190E0A0E067
:100C8000B0E0BA2FA92F982F8827218130E040E0CB
:100C900050E0822B932BA42BB52BE80EF91E0A1FD4
:100CA0001B1F32962297C230D10538F7FB01EE7F29
:100CB000EC0DFD1D60FF15C0808190E0A0E0B0E06C
:100CC000BA2FA92F982F882708C02FEF3FEF40E0B9
:100CD00050E0E222F32204231523E80EF91E0A1F36
:100CE0001B1FC801AA27BB270097A105B10569F7FB
:100CF000970120953095C901DF91CF911F910F91F8
:100D0000FF90EF90DF90CF900895CF93DF93EC01A9
:100D10005093A8014093070120E030E0F901ED5223
:100D2000FE4FDB01A20FB31F8C9180832F5F3F4FDB
:100D30002430310599F720E030E0F901E353FE4F0C
:100D4000DE01A20FB31F8C9180832F5F3F4F2630AF
:100D5000310599F7DF91CF910895DC0120E030E073
:100D6000FB01E20FF31F5A969C915A9780819817C6
:100D700011F080E008952F5F3F4F11962430310528
:100D800079F781E00895FC0169327105B0F084853E
:100D9000883099F48585863081F4DF019696E3EDFD
:100DA000F1E09C918081981741F41196319681E091
:100DB000E73DF807B1F781E0089580E00895FC0170
:100DC0006A327105D0F084858830B9F4858588232E
:100DD000A1F48685853489F4DF01E3EDF1E05E96C8
:100DE0009C915E978081981741F41196319681E02D
:100DF000E73DF807A1F781E0089580E00895FC0140
:100E0000ADECB1E0868180838D918683319681E05F
:100E1000A33DB807B9F708950F931F938C01FC0108
:100E2000108E118E80E4848B158A868BC8010E96F5
:100E300064E170E040E00E940A06F801908F818F23
:100E40001F910F910895AC01FC01A3EDB1E0828DDB
:100E5000868F8D91828F319681E0A73DB807B9F7D3
:100E6000CA010E940C070895FC01B99694E08081A4
:100E7000680F711D84816483442311F0808301C055
:100E8000108291503197992319F0672F7727EFCF70
:100E900008950F931F938C01FC0194A182A184A358
:100EA00092A395A183A185A393A3C8010E943407AF
:100EB000F80112AA13AA80E586A71F910F91089541
:100EC000FC01908980E02189422F50E0482B592B6A
:100ED00026A5822F82958F7090E0880F991F880F2A
:100EE000991F481B590B4451504057FF02C040E026
:100EF00050E0CA0108950AC0FC01E60FF71F26ABB7
:100F000021E0643F720710F46F5F7F4FFA014F5F7B
:100F10005F4F2491222381F7CB010895CF93DF9374
:100F2000EC01DA010DC0FE01E60FF71F8C9186ABD4
:100F300081E0643F780710F46F5F7F4F1196215076
:100F4000222389F7CB01DF91CF910895DC01FA01CB
:100F500005C084918D933196615070406115710583
:100F6000C1F70895FF920F931F93CF93DF93EC0186
:100F7000F62E072FBA01122F932FAE019E01A0E08B
:100F8000B0E0FD01E953FE4F8081F9018083FD014E
:100F9000E353FE4F8081F901868311962F5F3F4F07
:100FA000A630B10571F788E08C871D86DE01E0E789
:100FB000F0E084911E968C931E973196119680E0F6
:100FC000E937F807B1F7188A81E18F8BA0E0B0E02C
:100FD000FB01EA0FFB1F8081FA01868FFD01ED52B4
:100FE000FE4F8081FA01828F11964F5F5F4FA430D0
:100FF000B10571F79CA31DA30AA3FBA21EA218A60C
:1010000019A6DF91CF911F910F91FF9008958091C4
:10101000A1018695809581700895CF93DF93EC01AF
:10102000E3ECF1E0DC015C969C915C978081981781
:1010300011F080E010C01196319681E0E73CF8078E
:1010400091F7E7ECF1E08E898193219681E0ED3C08
:10105000F807C9F781E0DF91CF9108958091A10150
:1010600081FF03C084608093A1010895AC0181E0F9
:101070008093A10120E030E0F901ED53FE4FDA0149
:10108000A20FB31F8C9180832F5F3F4F2430310517
:1010900099F70895AC0120E030E0F901E355FE4FE7
:1010A000DA01A20FB31F8C9180832F5F3F4F243052
:1010B000310599F708959093B2018093B10170932F
:1010C000B4016093B3015093A4014093A50181E062
:1010D0008093A2018091A3018F5F8093A301883048
:1010E00010F01092A3018091A30108959093BC0188
:1010F0008093BB017093BE016093BD015093C0010A
:101100004093BF011092AB013093B6012093B5011B
:101110008EEB98E06DE179E040E550E00E945B08DD
:101120008093AC0108950F931F939093BC0180931B
:10113000BB017093C0016093BF015093B80140930D
:10114000B7013093BA012093B90181E08093AB01DC
:101150001093B6010093B5018EEB98E06DE179E054
:1011600040E550E00E945B088093AC011F910F9115
:1011700008959093C2018093C1010895EF92FF9268
:101180000F931F93CF93DF9379019091AC0189174F
:1011900059F0E091B501F091B60184E060E070E0B3
:1011A00040E050E0099536C06623A1F52D303105A9
:1011B00088F1C091B501D091B601209759F1009105
:1011C000A6011091A701475F5F4F400F511F80E0BC
:1011D00091E0BA0143E050E00E94E81AF80166A5E8
:1011E000009759F462956F7070E0660F771F660F75
:1011F000771F6E5D7F4F80E00AC062956F7070E070
:10120000660F771F660F771F6E5D7F4F81E0A70126
:10121000FE01099580E0DF91CF911F910F91FF9022
:10122000EF900895DA010D900020E9F71197A41BC3
:10123000B50B2A2F0E948E070895CF92DF92EF926E
:10124000FF920F931F93DF93CF9300D000D00F92A4
:10125000CDB7DEB79091AC01891719F020E030E0EE
:101260009DC08091AB010091A6011091A701882338
:1012700061F5C80160E070E045E651E00E947B073F
:10128000BC014091BB015091BC01C8010E947B0789
:10129000BC014091BD015091BE01C8010E941209DC
:1012A000BC01C80143E551E00E947B07BC014091AD
:1012B000BF015091C001C8010E947B07BC01C80159
:1012C00043E151E00E947B0768C0C80160E070E024
:1012D0004DE051E00E947B07BC014091BB01509161
:1012E000BC01C8010E947B07BC01C8014BEF50E064
:1012F0000E947B07BC014091BF015091C001C80111
:101300000E947B07BC01E090B701F090B801E114A6
:10131000F10459F0C80148EF50E00E947B07BC017E
:10132000C801A7010E947B07BC01C80140EC50E046
:101330000E947B07BC01C8014FEA50E00E947B0776
:101340006C01A091B901B091BA01FD01019000209A
:10135000E9F73197CF018A1B9B0B7E010894E11CB2
:10136000F11CB7014AE050E00E942C1B0091A6013D
:101370001091A701C801B601A7010E941209BC0182
:10138000C80149E750E00E947B07BC014091B901C8
:101390005091BA01C8010E9412099C01C9010F9025
:1013A0000F900F900F900F90CF91DF911F910F91A1
:1013B000FF90EF90DF90CF900895FF920F931F93CF
:1013C000CF93DF93EC01F62E142F022FAC01DC013A
:1013D00020E030E0F901E953FE4F80818C93F90160
:1013E000E353FE4F808116968C9316972F5F3F4FE5
:1013F00011962630310571F788E08C871D86DE0155
:10140000E0E7F0E084911E968C931E97319611963A
:1014100080E0E937F807B1F78CE2898B86E08F8BA3
:1014200020E030E0F901E355FE4F8081FA01868F1C
:10143000F901ED52FE4F8081FA01828F2F5F3F4FFD
:101440004F5F5F4F2430310569F7CE010E940C07D2
:101450001CA30DA38BE08AA3FBA2FE01B69680E03D
:1014600011928F5F8830E1F78091080188A78D5F26
:101470008093080180E68EA792E09FA783E088AB67
:1014800019AA1AAA1BAA1CAA1DAA9EAB84E08FAB9C
:1014900098AF86E289AFCE014A9660E270E042E002
:1014A0000E940A069AAB8BAB8AE390E0BE010E94D1
:1014B0002E05DF91CF911F910F91FF900895CF934B
:1014C000DF93EC01AC012DEC31E0FC01D9019FEF81
:1014D00090838D918683319681E0A33DB807C1F753
:1014E00088E08C8786E08D87DE01E8E6F0E0849175
:1014F0001E968C931E973196119680E0E037F80780
:10150000B1F7F90181919F01FA01868B10A24F5F1B
:101510005F4FF1E0233D3F07A1F7DE015C9620E03D
:1015200030E0FB01E20FF31F80811A968C931A972B
:10153000F901ED52FE4F80818D932F5F3F4F243094
:10154000310579F78091A10188608093A1018AE239
:1015500090E0BE010E942E05DF91CF910895EF9299
:10156000FF920F931F937C01062F045EFC01018BF9
:101570000E940C070451F70107A3085010E0005F18
:101580001F4FC7014A96B80141E00E940A06F701C1
:1015900090A781A7C8014A96B7010E942E051F9106
:1015A0000F91FF90EF900895AF92BF92DF92EF926C
:1015B000FF920F931F93CF93DF93EC015B01D42E27
:1015C000A801B90197010E94B2076D2D6D3D08F089
:1015D0006CEDDE019A9620E030E007C0F501E20FE5
:1015E000F31F80818D932F5F3F4F2617B8F3CE01F5
:1015F0000E94AF0ADF91CF911F910F91FF90EF9062
:10160000DF90BF90AF900895EF92FF920F931F93DA
:101610008C017B01CB018896F801908B818BC801EE
:101620000E940C07F80112AA13AA8CE190E0E80EC0
:10163000F91EC8014A96B70142E00E940A06F80165
:1016400092AB83ABC7014A96B8010E942E051F9149
:101650000F91FF90EF900895EF92FF921F93CF9319
:10166000DF93EC017B01142F0E94FF06812F806124
:101670008FA7143031F0E114F10419F4A1E0EA2E3F
:10168000F12CCE01B70141E00E944907188A88E297
:10169000898BCE010E94230784E088AB19AACE0172
:1016A0004A966CE170E042E00E940A069AAB8BAB6E
:1016B00086E390E0BE010E942E05DF91CF911F913D
:1016C000FF90EF900895EF92FF920F931F938C017C
:1016D0007B016091A9017091AA0140E00E942C0B4E
:1016E00089E1F80187A7C801B7010E94040B1F9187
:1016F0000F91FF90EF9008950F931F938C010E941C
:10170000FF06F801108A8CE2818BC8010E94230732
:1017100082E1F80187A7C80161E070E040E00E9423
:101720004907F80116A217A28091080180A711A607
:101730008D5F8093080182E086AB84E087AB95E003
:1017400090AF11AE80E686A790AB88E781ABC80169
:101750004A9660E270E042E00E940A06F80192AB0D
:1017600083AB8AE390E0B8010E942E051F910F9190
:101770000895EF92FF920F931F93CF93DF93EC01A5
:10178000162F072F7A010E94FF06212F302FC90143
:101790008C018D3D910510F00CED10E0188A045E6F
:1017A0001F4F098BCE010E9423078AA18CA38BA116
:1017B0008DA3FAA2EBA21EA2045110400FA318A6FB
:1017C00019A6085F1F4FCE014A96B80141E00E945A
:1017D0000A0698A789A7C8014A96BE010E942E054D
:1017E000DF91CF911F910F91FF90EF9008950F938C
:1017F0001F93CF93DF938C01EC01AA96A0E0B0E099
:1018000006C0FB01EA0FFB1F808189931196A41784
:10181000C0F3C801642F70E0A9010E94B90BDF91E9
:10182000CF911F910F9108950F931F93CF93DF9343
:10183000EC018B010E94FF06CE010E9423071AA231
:101840008CA1883F18F08DA18F5F8DA38CA1885F3C
:101850008CA3C801BE010E942E05DF91CF911F917C
:101860000F910895CF93DF93EC010E94FF061C8A2D
:1018700082E08D8BFE01ADECB1E0868980A38D9175
:10188000868B319681E0A33DB807B9F7FE017C96BF
:10189000A3EDB1E0808182878D91819381E0A73DA6
:1018A000B807C1F78AE290E0BE010E942E05DF91E1
:1018B000CF910895DF92EF92FF920F931F93CF93F2
:1018C000DF938C017B0161157105E1F58091A10128
:1018D000857079F08091040190910501892B49F47C
:1018E0000E942505882329F0C80163EC71E00E945D
:1018F0005F0A809104019091050101969093050182
:10190000809304018091A201813009F051C180913E
:10191000A10181FF4DC182E08093A2018091060167
:101920008F5F809306018F716091A3016295660FAE
:10193000607E682BC8014091A4012091A5010E94FE
:10194000DD0936C10E94C3068823D9F0D801559617
:101950008C91813019F4C8010E94320C8091A10150
:1019600083FF26C1F801F588F2E0FF1609F020C1D7
:10197000C8010E940D08882309F41AC1F092A10140
:1019800017C1C801B7010E94DF06882309F410C1FE
:10199000D80157969C915797913091F492968C91DB
:1019A000883071F4E091C101F091C201309719F0D3
:1019B000C8014A960995C801B7010E94140CF8C0E5
:1019C000B6E3EB16F10418F4963009F0F1C0F80113
:1019D00094A19B3009F0AFC01093A7010093A6011A
:1019E000C8016DEA71E00E94AD06882309F4E0C0E9
:1019F000D8019F968C919F97D82E82FF13C0E091BB
:101A0000B101F091B201309709F48BC095968C9199
:101A100082958695877063E040E050E020E030E0FA
:101A200009957FC0C8010E946007EC018091A20166
:101A3000823099F5D1FE23C0D4FE21C0C80160E0F8
:101A400070E040E00E942C0B88E1F80187A7E0914C
:101A5000B301F091B401309719F460E070E008C070
:101A6000D80193968C918295869587700995BC01D3
:101A700083E08093A201C8010E94040B99C081E019
:101A80008093A201D4FE03C060E070E003C0BE01F9
:101A90006F5F7F4FC80144E075C0833099F5209790
:101AA00089F184E08093A201E091B101F091B2014B
:101AB000309741F1D8019E968C9182958F70482F76
:101AC00050E0440F551F440F551FC70108974E5D46
:101AD0005F4F8417950708F4AC01CA018C0F9D1F56
:101AE000E816F90610F09E0103C09701241B350B80
:101AF000D80195968C9182958695877060E00995BE
:101B0000882351F48091A201853009F451C0F80175
:101B100087A580FF0AC02196C801BE0149E00E9446
:101B20002C0B85E08093A20143C0209709F442C0AA
:101B3000C801BE0126C08091A8019817C9F5D80137
:101B400095969C91959780910701981789F59F9696
:101B50008C9181FF04C0C8010E947C0B29C084FFC6
:101B600027C0C8010E9460079093AA018093A90131
:101B7000892B59F4F80187A580FF1AC0C80160E0DD
:101B800070E040E00E942C0B13C0D8019E968C910F
:101B900082958F70C82FD0E0CC0FDD1FCC0FDD1FDA
:101BA000A296E8EFFFEFEE0EFF1EEC16FD0610F416
:101BB000C0E0D0E0CE01DF91CF911F910F91FF9057
:101BC000EF90DF9008951F920F920FB60F9211249D
:101BD0002F933F938F939F93AF93BF93EF93FF9375
:101BE000E6E1F4E0A0E3B4E021E080819181009798
:101BF00031F0019791838083892B09F42C933296DD
:101C0000119684E0E033F80781F729B120953091EF
:101C10005F04232780919D018223809580939D01FD
:101C200090919C019223982790939C018223892371
:101C3000982F932790935F04982380915D04892BBC
:101C400080935D0426B1209530915C042327809118
:101C50009B018223809580939B0190919A0192230E
:101C6000982790939A0182238923982F9327909302
:101C70005C04982380916404892B80936404FF9111
:101C8000EF91BF91AF919F918F913F912F910F90C5
:101C90000FBE0F901F901895F89490915D048923C2
:101CA000982790935D0478940895F8949091640433
:101CB0008923982790936404789408955F926F9293
:101CC0007F928F929F92AF92BF92CF92DF92EF92CC
:101CD000FF920F931F93DF93CF9300D0CDB7DEB762
:101CE0005C018091090190910A019A838983109285
:101CF0005E0420E03E010894611C711C36E4532E02
:101D000091E0892E912C8FC06501C80ED91EF60175
:101D100090819A3309F483C09B3311F420E080C092
:101D2000222339F48981863411F09A8379C099830A
:101D300077C08A81863409F41A82C3010E94A01AEE
:101D40008C01FC01EE0FFF1FE658FE4F0190F08161
:101D5000E02DF190CF010E94A01A982F05501C4F42
:101D6000F8018081813009F058C0F601808181330B
:101D7000C9F4F4E4FF1649F42BB1A40102C0440FE6
:101D8000551F9A95E2F7242B3AC053E4F51609F053
:101D900044C028B1F40102C0EE0FFF1F9A95E2F78C
:101DA0002E2B3AC08033F1F4F4E4FF1661F42BB12A
:101DB000A40102C0440F551F9A95E2F7CA0180950D
:101DC00082238BB92AC053E4F51639F528B1F40102
:101DD00002C0EE0FFF1F9A95E2F7CF018095822394
:101DE00088B91BC08233C9F4F4E4FF1651F42BB157
:101DF000A40102C0440F551F9A95E2F724272BB97E
:101E00000CC053E4F51649F428B1F40102C0EE0FFA
:101E1000FF1F9A95E2F72E2728B959825A8221E0AE
:101E2000E394E0925E04E0905E048E2D90E0F50174
:101E300001900020E9F73197EA19FB098E179F07F7
:101E400008F462CF0F900F90CF91DF911F910F9107
:101E5000FF90EF90DF90CF90BF90AF909F908F90CA
:101E60007F906F905F9008950F931F93DF93CF93B0
:101E7000CDB7DEB76E970FB6F894DEBF0FBECDBFFD
:101E8000882369F5E6E1F4E01192119284E0E033F1
:101E9000F807D1F7DB01A652BE4F20E030E060E04A
:101EA00090E08E010F5F1F4F14C08E9111968D3000
:101EB00011F08A3011F49F5F09C0943011F090E066
:101EC00005C0F801E60FF11D80836F5F2F5F3F4F64
:101ED00011962417350748F3CE01019616C060917C
:101EE00015048BE0689FB0011124685F7F4F83E485
:101EF00094E04BE050E00E94631D809143048F3FCB
:101F000031F0882321F083E494E00E945E0E81E0AA
:101F1000809394016E960FB6F894DEBF0FBECDBFCE
:101F2000CF91DF911F910F910895BC01A6E9B1E017
:101F3000FD0101900020E9F73197EA1BFB0BCD0171
:101F4000AF010E94E81A9C0180E0232B09F481E094
:101F500008950F931F93CF93DF93EC0188818F3205
:101F600019F58E010F5F1F4F8CE091E0B8014BE037
:101F700050E00E94E81A009711F482E018C0C801EE
:101F80000E94950F882381F0FE019E01215F3F4F43
:101F90008181803211F48EEF0AC08F3239F0319690
:101FA000E217F307A9F702C08FEF01C08DEFDF91B1
:101FB000CF911F910F91089589ED91E060E070E05D
:101FC0004CEC56E00E947B0708951F93CF93DF935C
:101FD0009C01EB0183E494E0B90149E150E00E94E7
:101FE000F61A83E494E068E171E00E94DA1A109234
:101FF0005E0415C060E070E04AE050E00E94A21963
:10200000FE01E10FF11D608380915E048F5F80937C
:102010005E0480E090E068E171E00E94DA1A1091BD
:102020005E04143010F4009729F7812FDF91CF91CF
:102030001F9108952F923F924F925F926F927F92DD
:102040008F929F92AF92BF92CF92DF92EF92FF92C8
:102050000F931F93DF93CF93CDB7DEB7E4970FB6FF
:10206000F894DEBF0FBECDBF80E08A95F1F78FE315
:1020700094E060E070E044E050E00E94631D8091D5
:102080003F048F3FC1F010925E0411C0E32FF0E0D7
:10209000CF01815B9E4FDF01A15CBB4F2C91DC0126
:1020A0002C93E75BFE4F22833F5F30935E043091B9
:1020B0005E04343058F389E491E00E94710482E0B8
:1020C0000E946B0480E08A95F1F784E166E774E092
:1020D0000E944D048BEF93E06CED71E04DE050E019
:1020E0000E94631D88E094E069EE71E04DE050E0ED
:1020F0000E94631D219A80917A00866080937A0005
:1021000080917C00806480937C0080917A0080685C
:1021100080937A0010925E0451E0A52EB12C73C01A
:10212000EC2CFF248701000F111FF801E658FE4F29
:102130000190F081E02DD190CF010E94A01A982F3C
:102140000A5E1B4FF80111821082F701E05DFB4F20
:102150001082F701E550FC4F80818130A1F5F4E455
:10216000DF16A1F48AB1950102C0220F331F9A95A0
:10217000E2F7822B8AB948E054E0E40EF51ED7015D
:102180008C918130D9F48BB1282B1BC0B3E4DB16C2
:10219000B9F587B1950102C0220F331F9A95E2F776
:1021A000822B87B9E8E0F4E0EE0EFF1ED7018C9198
:1021B000813021F488B1282B28B922C08BB1209519
:1021C00028232BB91DC0B4E4DB1661F42AB1F50154
:1021D00002C0EE0FFF1F9A95E2F7CF018095822390
:1021E0008AB90EC0F3E4DF1659F427B1A50102C085
:1021F000440F551F9A95E2F7CA018095822387B94B
:10220000C394C0925E04C0905E045CE05C1508F06C
:1022100087CF8091810088608093810080918100C8
:102220008460809381008CE990E090938900809392
:10223000880082E080936F0089B1809580935F046D
:10224000789489E491E06FE471E040E550E00E9409
:10225000850680E694E064E070E044E050E00E948F
:10226000631D809160048F3FA1F080E694E00E949E
:10227000360880E694E00E944A0881E08093D80105
:102280008DEB96E06AE171E0AB0120E030E00E9466
:102290007608299A33E4432E34E0532E88E092E006
:1022A00069ED71E00E9476056C011092E10389ED01
:1022B00091E0B6010E945A0C4C018091940187FD77
:1022C0007FC06091950189E16802B00111246956CF
:1022D0007F4F83E494E049E150E00E94631D8091C8
:1022E00043048F3F09F467C0882309F464C0FF24C6
:1022F00000E020E010E02EC0DC01AD5BBB4F0430FD
:10230000F8F49C91892F8E52823088F4CE01049685
:102310000E94A01AE7E0F0E0EC0FFD1FE00FF11DB6
:1023200080830F5F1C821D821E8220E012C0E4E0C9
:10233000F0E0EC0FFD1FE20FF11D90832F5F09C04D
:10234000EBE0F0E0EC0FFD1FE10FF11D8C918083BD
:102350001F5FF394F20101900020E9F73197E354F5
:10236000F4408F2D90E08E179F0730F2EBE0F0E005
:10237000EC0FFD1FE10FF11D10828091D801882321
:1023800021F080919401823039F4CE0107960E94A9
:10239000360881E08093D801CE0107960E944A0852
:1023A0008BEB96E0BE01655F7F4F4AE151E020E094
:1023B00030E00E9476088FEF80939501809394011E
:1023C00010925E04AA24A39428E5222E22E0322E45
:1023D00091E0692E712CAFC00F2D10E0F801EE0FC7
:1023E000FF1FE658FE4F0190F081E02DB190CF0124
:1023F0000E94A01AE82EF0921504F801E550FC4F57
:102400008081882309F092C0F801E05DFB4F808154
:102410008130D1F410828BE0F89EB0011124685F06
:102420007F4F83E494E04BE050E00E94631D809175
:1024300043048F3F31F0882321F083E494E00E942D
:102440005E0E92E0909394018E2D992787FD9095D2
:10245000A4E4BA1681F4F89420915D04F30102C05B
:10246000EE0FFF1F8A95E2F7CF01822328272093E2
:102470005D0478940FC0F89420916404A30102C015
:10248000440F551F8A95E2F7CA018223282720931B
:1024900064047894882309F449C085B152E0852703
:1024A00085B9809160048F3F19F180E694E00E9425
:1024B0004A0880915E0490E0BE016C5F7F4F4AE065
:1024C00050E00E942C1B88EA96E0BE016C5F7F4FB3
:1024D0004AE151E024E33FE00E947608E0911504D0
:1024E000F0E0EE0FFF1FEA5EFB4F318220821AC040
:1024F000A092940160915E048BE0689FB00111246A
:10250000685F7F4F83E494E04BE050E00E94631DDE
:10251000809143048F3F31F0882321F083E494E0DD
:102520000E945E0E809115048093950180915E0457
:102530008F5F80935E04F0905E049CE09F1508F02E
:102540004BCF8114910409F4A9CEBDEDEB2EB1E07F
:10255000FB2EE80CF91C8BE191E0B70142E050E062
:102560000E94E81A009771F489ED91E060E070E054
:102570004CEC56E00E947B07BC0189ED91E04EE7F0
:1025800056E00BC0C7010E94A90F8F3F51F489ED9F
:1025900091E060E070E04EE256E00E947B076C0143
:1025A0006AC58E010B5E1F4FC701B8014EE12EE1D7
:1025B00031E00E944918882311F4BB2411C0C801DE
:1025C00062E271E00E94DF1ABB24009711F4BB2481
:1025D000B3948D89882321F0CE0145960E945E0E2A
:1025E000C70162EE73E049E126E231E00E9449183A
:1025F000882309F4A1C289ED91E060E070E04CEC21
:1026000056E00E947B076C018BEF93E06CED71E06C
:102610004DE050E00E94631D82EE93E00E94A01AFC
:10262000FC01EE0FFF1FE658FE4F0190F081E02DF8
:10263000E190CF010E94A01AF82EA4E4EA1631F42A
:102640008AB189838BB18A8389B108C0B3E4EB1660
:1026500031F487B1898388B18A8386B18B83BB20AB
:1026600039F589ED91E0B60144E256E00E947B071E
:10267000BC0189ED91E046E951E00E941209BC01DC
:1026800089ED91E046E156E00E947B078C0182EEE5
:1026900093E00E94A01AFC01EE0FFF1FE658FE4FC8
:1026A0004081518189ED91E0B8010E9412096C01CD
:1026B00082EE93E00E94A01AFC01E550FC4F80815D
:1026C0008F3F09F4E6C0BB2041F489ED91E0B601EB
:1026D00044E156E00E947B076C0182EE93E00E9489
:1026E000A01AFC01E550FC4F8081823041F5E0E406
:1026F000FE0EF0927C00F0ECFF0E80917A00806478
:1027000080937A0080917A0086FDFCCF80917800DA
:10271000209179002CAB1BAA90E02BA93CA9822B1D
:10272000932B63E474E04AE050E00E942C1B89ED97
:1027300091E0B60143E454E00E941209A9C08981E6
:102740002F2D332727FD309590E0022E02C095955E
:1027500087950A94E2F780FF85C08A8190E002C0E5
:10276000959587952A95E2F780FF06C089ED91E05F
:10277000B60141E156E005C089ED91E0B6014DE0BA
:1027800056E00E947B076C01BB2009F074C489ED00
:1027900091E0B60148E056E00E947B07BC0189ED5C
:1027A00091E04EEF55E00E947B07BC0189ED91E07E
:1027B00046E951E00E941209BC0189ED91E048EF21
:1027C00055E00E947B07BC0189ED91E042EE53E0A9
:1027D0000E941209BC0189ED91E042EF55E00E9490
:1027E0007B07BC0189ED91E042EE53E00E941209A3
:1027F000BC0189ED91E047EE55E00E947B07BC01EA
:1028000089ED91E04DED55E00E947B07BC0189ED1B
:1028100091E046E951E00E941209BC0189ED91E086
:1028200047ED55E00E947B07BC0189ED91E042EE47
:1028300053E00E941209BC0189ED91E041ED55E0A1
:102840000E947B07BC0189ED91E042EE53E00E94BB
:102850001209BC0189ED91E046EC55E00E947B072E
:102860006C011AC08B8190E002C0959587952A95DE
:10287000E2F780FD06C089ED91E0B60143EC55E03A
:1028800005C089ED91E0B6014FEB55E00E947B0752
:102890006C01BB2009F0EFC389ED91E0B6014CEA71
:1028A00055E00E947B07BC0189ED91E046E951E0CB
:1028B0000E941209BC0189ED91E049EA55E00E94AD
:1028C0007B07BC0189ED91E047E855E00E947B075A
:1028D000BC0189ED91E042EE53E00E941209BC0177
:1028E00089ED91E045E855E00E947B07BC0189ED48
:1028F00091E043E755E00E947B078C0182EE93E074
:102900000E94A01AFC01E550FC4FE081EF3F31F43A
:1029100089ED91E0B80145E155E02CC089812F2D6A
:10292000332727FD309590E0022E02C095958795BC
:102930000A94E2F780FF08C0E13031F489ED91E0BC
:10294000B80147EB54E016C0898190E002C095952C
:1029500087952A95E2F780FD08C0EE2331F489EDD2
:1029600091E0B80149E554E005C089ED91E0B80176
:1029700044E054E00E947B078C0133E4E316C1F489
:1029800082EE93E00E94A01AFC01E550FC4F80818A
:10299000823031F489ED91E0B8014EED53E005C08D
:1029A00089ED91E0B80141EC53E00E947B078C0176
:1029B00089ED91E0B80147EB53E00E947B078C0161
:1029C0008981EF2CFF24E7FCF09490E00E2C02C0EC
:1029D000959587950A94E2F780FD6EC082EE93E0AC
:1029E0000E94A01AFC01E550FC4F8081882309F069
:1029F00063C089ED91E0B8014CE853E00E947B0789
:102A00008C0182EE93E00E94A01A2BE030E0829FBE
:102A1000B001839F700D929F700D1124685F7F4FEE
:102A200083E494E04BE050E00E94631D80914304F6
:102A30008F3F51F0882341F089ED91E0B80143E4E4
:102A400054E00E9412098C0189ED91E0B80145E83B
:102A500053E00E947B07BC0189ED91E04FE553E014
:102A60000E947B078C0182EE93E00E94A01A29E16C
:102A700030E0829FB001839F700D929F700D1124F2
:102A800069567F4F83E494E049E150E00E94631D62
:102A9000809143048F3F51F0882341F089ED91E00C
:102AA000B80143E454E00E9412098C0189ED91E0E1
:102AB000B8014CE553E037C0898190E002C095959C
:102AC0008795EA94E2F780FF31C082EE93E00E949E
:102AD000A01AFC01E550FC4F8081813039F589ED69
:102AE00091E0B8014CE453E00E947B078C0182EE38
:102AF00093E00E94A01AFC01E85FFB4F80818130C7
:102B000031F489ED91E0B8014EE053E005C089ED64
:102B100091E0B80140ED52E00E947B07BC0189EDD5
:102B200091E046EC52E00E947B078C0189ED91E038
:102B3000B8014EE952E031CDC70162EE73E049E1E0
:102B400029E231E00E944918882309F4C8C0C7016E
:102B500063E474E049E12CE231E00E9449188823E3
:102B600029F183E494E060E371E00E94DF1A0097AA
:102B7000E9F082EE93E00E94A01A8C0183E494E0D5
:102B80000E94A01A05501C4FD8018C9382EE93E04E
:102B90000E94A01ABC0185509C4F64527E4F41E0B8
:102BA00050E00E94731D81E08093D701C70163E468
:102BB00074E049E123E331E00E944918882301F1E0
:102BC000809143048823E1F083E494E00E94A718F5
:102BD00082EE93E00E94A01A2BE030E0829FB001C9
:102BE000839F700D929F700D1124685F7F4F83E467
:102BF00094E04BE050E00E94731D81E08093D70188
:102C0000C70163E474E049E128E331E00E94491818
:102C1000882301F1809143048823E1F083E494E068
:102C20000E94A71882EE93E00E94A01A29E130E0EA
:102C3000829FB001839F700D929F700D1124695681
:102C40007F4F83E494E049E150E00E94731D81E0EE
:102C50008093D701C70163E474E049E12CE331E0DC
:102C60000E9449188823D1F082EE93E00E94A01AB6
:102C70008C0183E494E00E94A01A085F1B4FF801C6
:102C8000808382EE93E00E94A01ABC01885F9B4F74
:102C900067517E4F41E050E00E94731D8091D70143
:102CA000813009F0E8C189ED91E060E070E04CEC22
:102CB00056E00E947B07BC0189ED91E044E952E0B7
:102CC0000E947B07BC0189ED91E046E951E00E943A
:102CD0001209BC0189ED91E049E852E05ECCC701E0
:102CE00062EE73E049E12EE331E00E944918882347
:102CF00009F434C18091E203813309F0BCC1C701FA
:102D000062EE73E049E121E431E00E944918882332
:102D100089F082EE93E06FE374E00E94E50F8FE3A9
:102D200094E060E070E044E050E00E94731D81E0B8
:102D30008093D701C70162EE73E049E125E431E0F9
:102D40000E944918882389F082EE93E060E674E0DF
:102D50000E94E50F80E694E064E070E044E050E01B
:102D60000E94731D81E08093D70189ED91E060E0BE
:102D700070E04CEC56E00E947B078C018FE394E0FE
:102D800060E070E044E050E00E94631D80E694E063
:102D900064E070E044E050E00E94631D80913F04D5
:102DA0008F3F99F410925E040CC0E92FF0E0DF0130
:102DB000A15BBE4F8C91E15CFB4F80839F5F909342
:102DC0005E0490915E04943080F389ED91E0B80147
:102DD0004FE752E00E947B07BC0189ED91E046E994
:102DE00051E00E941209BC0189ED91E041E752E0F7
:102DF0000E947B07BC0189ED91E042E652E00E940F
:102E00007B07BC0189ED91E046E951E00E9412097F
:102E1000BC0189ED91E04FE552E00E947B07BC01C7
:102E200089ED91E04BE352E00E947B07BC0189ED04
:102E300091E046E152E00E947B078C012DB73EB73E
:102E40002E5030400FB6F8943EBF0FBE2DBFEDB7E9
:102E5000FEB73196ADB7BEB712965C924E921197FF
:102E600069E1E62EF12CF382E2822AE032E035833A
:102E7000248380913F048683178280914004808759
:102E80001186809141048287138680914204848751
:102E900015860E94551B4DB75EB7425F5F4F0FB658
:102EA000F8945EBF0FBE4DBF89ED91E0B801A2015D
:102EB0000E941209BC0189ED91E044E052E00E94B9
:102EC0007B07BC0189ED91E04BED51E00E947B074F
:102ED0008C018DB79EB70E970FB6F8949EBF0FBEAC
:102EE0008DBFEDB7FEB73196ADB7BEB712965C9207
:102EF0004E921197F382E2822FEC31E035832483E6
:102F00008091600486831782809161048087118696
:102F1000809162048287138680916304848715867A
:102F20000E94551B4DB75EB7425F5F4F0FB6F894D6
:102F30005EBF0FBE4DBF89ED91E0B801A2010E94B6
:102F40001209BC0189ED91E04DEC51E00E947B0734
:102F5000BC0189ED91E043EA51E01FCB89ED91E09E
:102F600060E070E04CEC56E00E947B07BC0189ED0C
:102F700091E049E951E00E947B07BC0189ED91E0B5
:102F800046E951E00E941209BC0189ED91E045E853
:102F900051E00E947B076C0110925E0459E1E52E1E
:102FA000F12C64C089ED91E0B6014BE751E00E943D
:102FB0007B07BC0189ED91E046E951E00E941209CE
:102FC000BC0189ED91E045E751E00E947B078C014F
:102FD0008DB79EB708970FB6F8949EBF0FBE8DBFF2
:102FE000EDB7FEB73196ADB7BEB712965C924E9272
:102FF0001197F382E28222E731E0358324838091C6
:103000005E04868317820E94551B4DB75EB7485FEA
:103010005F4F0FB6F8945EBF0FBE4DBF89ED91E0D4
:10302000B801A2010E941209BC0189ED91E040E7BC
:1030300051E00E947B07BC01E0915E04F0E0EE0FDE
:10304000FF1FE658FE4F4081518189ED91E00E94BB
:103050001209BC0189ED91E04AE651E00E947B072C
:103060006C0180915E048F5F80935E0480915E04AA
:103070008D3008F497CF89ED91E0B6010E94630B83
:103080008091D701813009F009C9E0E0F0E00995AD
:1030900005C9CF93DF93DC01EB01722F632F822FE1
:1030A000932F9C01F90150E016C08081981771F4AC
:1030B00031968081882371F411968C918D3331F48F
:1030C000872F962F9C01F90151E004C0872F962F7E
:1030D0009C01F90111969C91992339F0903229F0C5
:1030E0009A3019F0552309F304C0513011F030E043
:1030F00018C06A2F50E04150504002C029931196E9
:103100003A2F361B2C91222359F0203249F02A30D5
:1031100039F0263229F0832F90E08417950774F355
:103120001882832FDF91CF910895982F80538A3092
:1031300068F08153863010F4865F0895892F81549A
:10314000863010F080E00895892F87530895CF923C
:10315000DF92FF920F931F93CF93DF93EC016C01EB
:103160001CC09B3211F490E214C0953291F48E0190
:103170000F5F1F4FE8012196F80180810E9495188A
:10318000F82EF80181810E9495189F2D9295907FCD
:10319000982BF60191936F0121969881992309F755
:1031A000F6011082DF91CF911F910F91FF90DF9078
:1031B000CF900895382FFB01282F2F70205D218399
:1031C000205390E08F7090700A9714F0295A218351
:1031D000832F82958F70805D808380538A3010F0BA
:1031E000895A808312820895BF92CF92DF92EF9224
:1031F000FF920F931F93CF93DF937C01B42EC22EC7
:10320000D02EEB0100E010E017C0B701610F711D77
:10321000888190E04D2D50E00E942C1B01C0192F99
:10322000F701E10FF11D8081912F9F5F8823B9F78E
:10323000C082192F0F5F21960B1538F31150E10E44
:10324000F11CF7011082DF91CF911F910F91FF9038
:10325000EF90DF90CF90BF900895EF92FF921F9371
:10326000CF93DF937C01EB0180E090E0F701E80F62
:10327000F91F1082019684309105C1F710E020E01B
:1032800030E017C02115310531F4842F90E0C0974C
:103290000A9708F49E014E3259F41882C9010E941F
:1032A000A01AF701E10FF11D80831F5F20E030E0DD
:1032B00021964881442311F0143020F318821330F2
:1032C00011F081E006C0C9010E94A01AF7018383B2
:1032D00080E0DF91CF911F91FF90EF900895EF92E2
:1032E000FF920F931F93CF93DF938B01EC012196F5
:1032F00095E2E92E1AC080E2F81619F48BE2F82E56
:1033000006C08F2D90E00E94BE1A892B21F0F80193
:10331000F1928F0109C0F801E1928F018F2DBF0159
:103320000E94DA180E5F1F4F2196FA902196FF2017
:1033300011F7F8011082DF91CF911F910F91FF904B
:10334000EF900895A0E0B0E0E8EAF9E10C94911E56
:10335000EC012B016A016115710519F0FB019183E4
:103360008083C114D10449F0C6010297839728F0E5
:1033700020E030E040E050E0DCC0A9908A2D90E0F1
:103380000E94D21A892BC9F7FDE2AF1621F4A99049
:103390003324339405C08BE2A81609F4A990332492
:1033A000C114D10421F0E0E1CE16D10411F5F0E30F
:1033B000AF1669F48881883711F0883541F4A98007
:1033C000229682E0382A20E1C22ED12C12C0C114EC
:1033D000D10479F4E0E3AE1659F199E9E92E99E9BF
:1033E000F92E99E9092F99E1192F8AE0C82ED12CDD
:1033F0003AC0FAE0CF16D10491F080E1C816D104AA
:1034000029F0E8E0CE16D104F9F415C0BFEFEB2E99
:10341000BFEFFB2EBFEF0B2FBFE01B2F24C0A9E98E
:10342000EA2EA9E9FA2EA9E90A2FA9E11A2F1BC051
:10343000F8E0CF2ED12CEFEFEE2EEFEFFE2EEFEFD8
:103440000E2FEFE11E2F0FC09601442737FD409548
:10345000542F6FEF7FEF8FEF9FEF0E946E1EC90119
:10346000DA017C018D0120E030E040E050E060E0D6
:103470003601882477FC8094982C70EDB72EBA0C16
:10348000F9E0FB1570F48A2D81548A3118F499EC17
:10349000B92E06C08A2D81568A3148F589EAB82EA0
:1034A000BA0C8B2D90E08C159D050CF56F3FE9F063
:1034B000E216F30604071507B8F0CA01B901A40122
:1034C00093010E943B1E9B01AC018B2D90E0A0E07C
:1034D000B0E0280F391F4A1F5B1F281739074A071A
:1034E0005B0710F061E001C06FEFA990C6CF4114F7
:1034F000510451F0662311F0219703C031FE04C03E
:103500002297F201D183C08330FE07C050954095C9
:10351000309521953F4F4F4F5F4F67FF0AC082E2C2
:1035200090E090936604809365042FEF3FEF4FEF98
:103530005FEFB901CA01CDB7DEB7E1E10C94AD1E72
:10354000FC0188279927E89421912032E9F329305A
:1035500010F02E30C8F32B3241F02D3239F468943C
:1035600004C00E944D1B820F911D219120532A30CF
:10357000C0F31EF4909581959F4F0895911106C058
:1035800080538A5010F0865C06C0089599278827DA
:10359000089585FDFBCF80629111F8CF81568A5145
:1035A000E0F708959111F2CF803219F089508550DB
:1035B000D0F708954DE354E00E94051B0895FB01E8
:1035C000DC018D91019080190110D9F3990B0895B8
:1035D000FB01DC014150504030F08D910190801989
:1035E00019F40020B9F7881B990B0895FB01DC0141
:1035F0004150504048F001900D920020C9F701C0A1
:103600001D9241505040E0F70895FA01A191B08118
:10361000009719F41097E1F0CD01DC01CD010D9078
:10362000002011F4C00113C0FB012191222319F0E5
:103630002015D9F7F3CFFB012191201519F41E9223
:10364000119606C02223C1F70D900020A1F7D001EA
:10365000FA01A193B0830895FB019F01E8944230E1
:10366000C4F04532B4F44A3029F497FB1EF4909527
:1036700081959F4F642F77270E945A1E805D8A3361
:103680000CF0895D8193CB010097A1F716F45DE200
:1036900051931082C9010C94A11D7AE0979F902D3F
:1036A000879F802D910D11240895AEE0B0E0EBE5E9
:1036B000FBE10C949E1E0D891E898F89988D97FFC2
:1036C00002C080E090E801979E838D831A8309836E
:1036D0008EE08C839E01255E3F4FCE010196698D61
:1036E0007A8DA9010E94861B4D815E8157FD0AC01B
:1036F0002F813885421753070CF49A01020F131FCC
:10370000F80110822E96E4E00C94BA1EABE0B0E013
:10371000ECE8FBE10C94901E3C012B015A01FC01EA
:1037200017821682838181FD03C06FEF7FEFC6C1D0
:103730009AE0892E1E010894211C311CF30123817B
:10374000F20123FD859123FF81912F01882309F444
:10375000B2C1853239F423FD859123FF81912F0178
:10376000853229F490E0B3010E94B11DE7CF982F74
:10377000FF24EE249924FFE1FF15D0F09B3269F07D
:103780009C3228F4903259F0933291F40EC09D325D
:1037900049F0903369F441E024C052E0F52A84E016
:1037A000F82A28C098E0F92A25C0E0E1FE2A22C0C4
:1037B000F7FC29C0892F80538A3070F4F6FE05C0CB
:1037C000989C902C1124980E15C0E89CE02C112494
:1037D000E80EF0E2FF2A0EC09E3229F4F6FC6BC11F
:1037E00040E4F42A07C09C3619F450E8F52A02C0D8
:1037F000983649F4F20123FD959123FF91912F0111
:10380000992309F0B8CF892F8554833018F080525E
:10381000833038F444E050E0A40EB51E5FE35983D2
:103820000FC0933631F0933779F0933509F056C0D5
:1038300020C0F5018081898342E050E0A40EB51ECE
:10384000610101E010E012C0F501C080D180F6FCFA
:1038500003C06FEF7FEF02C0692D70E042E050E0DF
:10386000A40EB51EC6010E94961D8C015FE7F522CD
:1038700014C0F501C080D180F6FC03C06FEF7FEF6C
:1038800002C0692D70E042E050E0A40EB51EC601F2
:103890000E948B1D8C0150E8F52AF3FE07C01AC068
:1038A00080E290E0B3010E94B11DEA948E2D90E079
:1038B00008171907A8F30EC0F601F7FC8591F7FE6B
:1038C00081916F0190E0B3010E94B11DE110EA9473
:1038D000015010400115110579F7EAC0943611F036
:1038E000993669F5F7FE08C0F501208131814281E2
:1038F000538184E090E00AC0F501808191819C01B0
:10390000442737FD4095542F82E090E0A80EB91E61
:103910009FE6F92257FF09C05095409530952195B3
:103920003F4F4F4F5F4FE0E8FE2ACA01B901A101A6
:103930002AE030E00E94DD1DD82ED21840C0953715
:1039400029F41F2D1F7E2AE030E01DC01F2D197F96
:103950009F3661F0903720F4983509F0ACC00FC065
:10396000903739F0983709F0A6C004C028E030E05D
:103970000AC0106114FD146020E130E004C014FDA1
:10398000166020E132E017FF08C0F5016081718107
:103990008281938144E050E008C0F50180819181EB
:1039A000BC0180E090E042E050E0A40EB51EA10111
:1039B0000E94DD1DD82ED2188FE7F82EF122F6FED8
:1039C0000BC05EEFF522D91438F4F4FE07C0F2FC08
:1039D00005C08FEEF82202C01D2D01C0192DF4FE86
:1039E0000DC0FE01ED0DF11D8081803319F499EEBB
:1039F000F92208C01F5FF2FE05C003C08F2D867834
:103A000009F01F5F0F2DF3FC14C0F0FE0FC01E1550
:103A100010F09D2C0BC09D2C9E0C911A1E2D06C0E3
:103A200080E290E0B3010E94B11D1F5F1E15C0F33C
:103A300004C01E1510F4E11A01C0EE2404FF0FC0EB
:103A400080E390E0B3010E94B11D02FF1DC001FDA3
:103A500003C088E790E00EC088E590E00BC0802F9F
:103A6000867891F001FF02C08BE201C080E2F7FC92
:103A70008DE290E0B3010E94B11D06C080E390E0AA
:103A8000B3010E94B11D9A94D914C0F3DA94F101E4
:103A9000ED0DF11D808190E0B3010E94B11DDD208C
:103AA000A9F706C080E290E0B3010E94B11DEA943C
:103AB000EE20C1F743CEF30166817781CB012B96CF
:103AC000E2E10C94AC1EDC01CB01FC01F999FECFC4
:103AD00006C0F2BDE1BDF89A319600B40D92415096
:103AE0005040B8F70895DC01CB0103C02D910E942E
:103AF0007E1D41505040D0F70895262FF999FECFF2
:103B00001FBA92BD81BD20BD0FB6F894FA9AF99AFA
:103B10000FBE01960895FC010590615070400110A0
:103B2000D8F7809590958E0F9F1F0895FC016150E6
:103B3000704001900110D8F7809590958E0F9F1FCF
:103B40000895DC01FC01672F71917723E1F732972B
:103B500004C07C916D9370836291AE17BF07C8F368
:103B600008950F931F93CF93DF938C01EB018B810B
:103B700081FF1BC082FF0DC02E813F818C819D8102
:103B80002817390764F4E881F9810193F983E88300
:103B900006C0E885F985802F0995892B31F48E813F
:103BA0009F8101969F838E8302C00FEF1FEFC80194
:103BB000DF91CF911F910F910895FA01AA27283024
:103BC00051F1203181F1E8946F936E7F6E5F7F4FEA
:103BD0008F4F9F4FAF4FB1E03ED0B4E03CD0670F66
:103BE000781F891F9A1FA11D680F791F8A1F911DB9
:103BF000A11D6A0F711D811D911DA11D20D009F409
:103C000068943F912AE0269F11243019305D31934A
:103C1000DEF6CF010895462F4770405D4193B3E033
:103C20000FD0C9F7F6CF462F4F70405D4A3318F0DA
:103C3000495D31FD4052419302D0A9F7EACFB4E08B
:103C4000A6959795879577956795BA95C9F7009743
:103C50006105710508959B01AC010A2E06945795E4
:103C6000479537952795BA95C9F7620F731F841F3B
:103C7000951FA01D0895629FD001739FF001829F40
:103C8000E00DF11D649FE00DF11D929FF00D839FEB
:103C9000F00D749FF00D659FF00D9927729FB00D88
:103CA000E11DF91F639FB00DE11DF91FBD01CF019B
:103CB00011240895AA1BBB1B51E107C0AA1FBB1FFB
:103CC000A617B70710F0A61BB70B881F991F5A95A8
:103CD000A9F780959095BC01CD010895A1E21A2E17
:103CE000AA1BBB1BFD010DC0AA1FBB1FEE1FFF1FA0
:103CF000A217B307E407F50720F0A21BB30BE40BF0
:103D0000F50B661F771F881F991F1A9469F7609536
:103D10007095809590959B01AC01BD01CF010895F0
:103D20002F923F924F925F926F927F928F929F92CB
:103D3000AF92BF92CF92DF92EF92FF920F931F93B9
:103D4000CF93DF93CDB7DEB7CA1BDB0B0FB6F8946A
:103D5000DEBF0FBECDBF09942A88398848885F84AA
:103D60006E847D848C849B84AA84B984C884DF801B
:103D7000EE80FD800C811B81AA81B981CE0FD11DFF
:103D80000FB6F894DEBF0FBECDBFED010895F894D5
:023D9000FFCF63
:103D920032303000010001500A4646006661766901
:103DA200636F6E2E69636F002E00002F2000636D1B
:103DB200640067657400707400706E00707479003E
:103DC2004E430065636D6400657468006400636659
:103DD2000065697000736970005455C1A8000EC077
:103DE200A8012C44300044310044330044340044E0
:103DF200350044360044370043300043310043323B
:103E02000043330043340043350053015601590146
:103E12005C015F016201650168016B016E01710164
:0E3E220074017701FFFF73656300FFFFFFFF70
:00000001FF
