:100000000C9434000C9451000C9451000C94510049
:100010000C9451000C9451000C9451000C9451001C
:100020000C9451000C9451000C9451000C9451000C
:100030000C9451000C9451000C9451000C945100FC
:100040000C9451000C9451000C9451000C945100EC
:100050000C9451000C9451000C9451000C945100DC
:100060000C9451000C94510011241FBECFEFD4E02A
:10007000DEBFCDBF11E0A0E0B1E0EEE1FAE002C0EA
:1000800005900D92AE33B107D9F712E0AEE3B1E0BF
:1000900001C01D92A634B107E1F70E9460000C94E4
:1000A0000D050C940000BC0186E391E045E050E0B2
:1000B0000E94FF049C0180E0232B09F481E0089555
:1000C000AEE1B0E0E6E6F0E00C94CC0480E880938A
:1000D0006100109261008AE090E00E94A904209AD9
:1000E000529828988AE090E00E94A904289A88EC07
:1000F00090E00E94A9048CE291E00E94FB0384E15D
:1001000090E00E94A904219A299A579A5F9884E165
:1001100066E774E00E94320384E190E00E94A90443
:1001200029988CE291E062E371E00E949301DD2462
:10013000D3947E010894E11CF11C8AEF90E06EE3F9
:1001400071E00E948B038C010097B9F3DD2019F058
:10015000299ADD2403C02998DD24D3948EE391E00D
:10016000602F0E94B301882331F08EE391E0602F6D
:100170000E947B02E2CF8EE391E0602F0E94CE01CD
:100180008823D9F280915501813051F4809160012A
:10019000883099F68EE391E0602F0E945E02CDCF09
:1001A000813159F680916201843039F68091630182
:1001B000803B19F610916501185088E691E00E9485
:1001C0005300882359F43CC09F5FE92FF0E0E25CC4
:1001D000FE4F82A58C3219F49F5F03C090E0911707
:1001E00098F3923068F0E92FF0E0812F90E00297C9
:1001F000E817F9072CF4E25CFE4F83A58D3321F05C
:10020000C70160E071E01FC082A58437A9F4E4A5AE
:10021000E13311F45F9A08C0E03311F45F9808C02D
:10022000EF3351F45F9B04C0C70169E071E00BC07C
:10023000C7016DE071E007C0C70161E171E003C073
:10024000C7016FE171E00E94F804F70101900020FE
:10025000E9F73197EE19FF098EE391E0B7014E2FD0
:1002600020EB34E00E94180268CFEF92FF920F93C8
:100270001F93CF93DF937C01413061F4685070404D
:100280009B0140E050E0685F7F4F2F5E3F4F4F4F34
:100290005F4F12C0423029F020E030E040E050E0F3
:1002A0000BC0685070409B0140E050E0685F7F4F9A
:1002B0002A5F3F4F4F4F5F4FE7018B010FC0F8811F
:1002C000E0E0898190E08E2B9F2BA0E0B0E0280F2A
:1002D000391F4A1F5B1F2296025010400230110541
:1002E00070F7FB01EE7FEE0DFF1D60FF0DC09081EA
:1002F00080E0AA2797FDA095BA2F02C040705070E9
:10030000280F391F4A1F5B1FCA01AA27BB27009766
:10031000A105B10599F720953095C901CDB7DEB794
:10032000E6E00C94E904AC0120E030E0F901E15C86
:10033000FD4FDB01A20FB31F8C9180832F5F3F4FD6
:100340002430310599F720E030E0F901E75CFD4FFA
:10035000DA01A20FB31F8C9180832F5F3F4F2630AD
:10036000310599F70895FC016932B0F08485883031
:1003700099F48585863081F4DF019696EFE3F2E00B
:100380009C918081981741F41196319682E0E33474
:10039000F807B1F781E0089580E00895FC016A3222
:1003A000B8F084858830A1F48585882389F4DF013D
:1003B000EFE3F2E05E969C915E978081981741F49E
:1003C0001196319682E0E334F807A1F781E00895B1
:1003D00080E00895FC01A9E3B2E0868180838D91DD
:1003E0008683319682E0AF33B807B9F70895CF938B
:1003F000DF93EC01FC01AFE3B2E0828D868F8D913B
:10040000828F319682E0A334B807B9F7188E198E1F
:1004100080E48C8B1D8A8E8BCE010E9664E170E099
:1004200040E00E943501988F898FDF91CF91089528
:10043000A0E0B0E0EEE1F2E00C94CC04EC017B0132
:10044000142FD22E032F0E94EA011D3D08F01CED4F
:10045000188A145E198BCE010E94F7018AA18CA321
:100460008BA18DA30AA3DBA21EA214511FA31850B7
:1004700018A619A6DE019A9620E030E007C0F70121
:10048000E20FF31F80818D932F5F3F4F2117B8F349
:10049000012F10E0005F1F4FCE014A96B80141E0E6
:1004A0000E94350198A789A7C8014A96BE010E94FB
:1004B0005403CDB7DEB7E7E00C94E8041F93CF9365
:1004C000DF93EC01162F0E94EA01CE010E94F70192
:1004D0001AA28CA1883F18F08DA18F5F8DA38CA1EB
:1004E000885F8CA3812F90E0BE010E945403DF91AE
:1004F000CF911F910895CF93DF93EC010E94EA0101
:100500001C8A82E08D8BFE01A9E3B2E0868980A37C
:100510008D91868B319682E0AF33B807B9F7FE0133
:100520007C96AFE3B2E0808182878D91819382E0F7
:10053000A334B807C1F78AE290E0BE010E945403D9
:10054000DF91CF9108952A98962F9F71982B9EBD89
:100550000DB407FEFDCF1EBC0DB407FEFDCF67FF37
:1005600004C01EBC0DB407FEFDCF2A9A8EB50895B7
:100570002A986F71682B6EBD0DB407FEFDCF4EBD7E
:100580000DB407FEFDCF2A9A0895AC01FB012A980D
:100590008AE38EBD0DB407FEFDCF9A01DF0108C0CE
:1005A0001EBC0DB407FEFDCF215030408EB58D939B
:1005B00021153105A9F7E40FF51F10822A9A089535
:1005C0009C01FB012A988AE78EBD0DB407FEFDCF82
:1005D00008C080818EBD0DB407FEFDCF2150304094
:1005E000319621153105A9F72A9A08951F93CF93C3
:1005F000DF93182FC82FD0E0C076D07080914302CF
:1006000090E0C817D90791F080EA6FE143E00E94BB
:10061000B80285E0D595C7958A95E1F780E86FE146
:100620004C2F0E94B802107610934302DF91CF91B5
:100630001F9108951F93182F0E94F60280E0612FEA
:100640000E94A3021F9108950F931F93182F062F46
:100650000E94F60280E4612F402F0E94B8021F9191
:100660000F9108950F931F93982F162F072F84ED46
:10067000692F0E94240386ED612F0E94240387EDD9
:10068000602F0E94240318E203C0812F8A95F1F79E
:100690008AEE0E941A0380FDF8CF1F910F910895F2
:1006A00082E70E941A030895EF92FF920F931F931F
:1006B0008C017B0182E06FEF0E94240383E069E1FB
:1006C0000E942403602F615086E00E942403980159
:1006D0002150364E87E0632F0E9424038AE760E0B2
:1006E00040E00E94B802C801B7010E94E00280E821
:1006F0006FE148E00E94B8028CE10E941A0381FF7A
:1007000005C080EA6FE148E00E94B8021F910F9196
:10071000FF90EF900895A0E0B0E0E1E9F3E00C94E1
:10072000C9046C015B0189E30E941A03882319F450
:1007300000E010E05AC0609144021091450280E050
:100740000E94240381E0612F0E9424038AE360E079
:100750000E94A302182F8AE360E00E94A302382FB0
:1007600020E0C12FD0E0C22BD32BD0934502C09301
:1007700044028AE360E00E94A302E82E8AE360E07C
:100780000E94A302F82E8AE360E00E94A302082FD1
:1007900010E08AE360E00E94A302382F20E0202BC3
:1007A000312B27FD03C000E010E012C00E2D10E039
:1007B0009F2D80E0082B192BC60101970450104093
:1007C0008017910708F48C01C801B5010E94C50289
:1007D0008CE06C2F0E9424038DE06D2F0E94240377
:1007E00080E86EE140E40E94B802C801CDB7DEB7F0
:1007F000EAE00C94E5040F931F938C01229A2A9A45
:1008000084B18C6284B924982A9A2B982D9880E51B
:100810008CBD8DB581608DBD8FEF60E04FEF0E9484
:10082000B80282E390E00E94A9041092450210925F
:10083000440288E060E00E94240389E060E00E94B6
:1008400024038CE060E00E9424038DE060E00E94BD
:1008500024038AE06EEF0E9424038BE069E10E948A
:10086000240384E06FEF0E94240385E069E10E9485
:10087000240386E06FEF0E94240387E06FE10E946B
:10088000240388E360EB0E94240388E26FE30E9464
:10089000240389E260E30E94240380E369EF0E945D
:1008A000240381E367EF0E94240380EC6DE00E9443
:1008B000240381EC60E00E94240380E862EC42E3C0
:1008C0000E94B80286EC62E10E94240387EC6CE08F
:1008D0000E94240384EC62E10E9424038AEC64EF0A
:1008E0000E9424038BEC61E00E94240384EEF80153
:1008F00060810E94240385EEF80161810E94240337
:1009000082EEF80162810E94240383EEF801638184
:100910000E94240380EEF80164810E94240381EE8A
:10092000F80165810E94240380E160E071E00E948B
:1009300032038FE10E94F60280E86BE140EC0E94F6
:10094000B80280E86FE144E00E94B8021F910F9165
:10095000089520E837E004C0F9013197F1F70197D5
:100960000097D1F708952FE088E190E00FB6F89452
:10097000A895809360000FBE209360000895A8950D
:1009800008952F923F924F925F926F927F928F9233
:100990009F92AF92BF92CF92DF92EF92FF920F930E
:1009A0001F93CF93DF93CDB7DEB7CA1BDB0B0FB618
:1009B000F894DEBF0FBECDBF09942A8839884888D5
:1009C0005F846E847D848C849B84AA84B984C8846B
:1009D000DF80EE80FD800C811B81AA81B981CE0F62
:1009E000D11D0FB6F894DEBF0FBECDBFED01089547
:1009F000FB01DC0101900D920020E1F70895FB015D
:100A0000DC014150504030F08D910190801919F473
:0E0A10000020B9F7881B990B0895F894FFCFCA
:100A1E00653D6E6F5F636D6400743D3100743D30F3
:100A2E0000653D6E6F5F737563685F636D6400652F
:100A3E003D696E76616C69645F707700545558102D
:0E0A4E0000240A0000187365637265740000CE
:00000001FF
