:100000000C9434000C9451000C9451000C94510049
:100010000C9451000C9451000C9451000C9451001C
:100020000C9451000C9451000C9451000C9451000C
:100030000C9451000C9451000C9451000C945100FC
:100040000C9451000C9451000C9451000C945100EC
:100050000C9451000C9451000C9451000C945100DC
:100060000C9451000C94510011241FBECFEFD4E02A
:10007000DEBFCDBF11E0A0E0B1E0ECE1F9E002C0ED
:1000800005900D92A031B107D9F712E0A0E1B1E0DF
:1000900001C01D92A831B107E1F70E9453000C94F2
:1000A0008C040C9400000F931F93CF93DF9380E890
:1000B0008093610010926100209A289884E190E07A
:1000C0000E94CF02289A84E690E00E94CF02219AF3
:1000D000299A86E091E00E94210284E190E00E944A
:1000E000CF0284E166E774E00E94580184E190E069
:1000F0000E94CF02299886E091E06CE071E00E94B6
:10010000450311E08AEF90E060E171E00E94B101E7
:10011000EC010097B9F3082F80E191E06C2F0E9469
:100120006503882331F080E191E06C2F0E942D045B
:10013000E9CF80E191E06C2F0E948003882311F3C6
:10014000112319F0299A10E002C0299811E080913A
:100150002701813051F480913201883099F680E195
:1001600091E0602F0E941004CDCF813159F690911B
:10017000370180913A01843729F69D3019F680E1E4
:1001800091E060E071E046E020EB34E00E94CA03B9
:10019000B9CF2A98962F9F71982B9EBD0DB407FE5C
:1001A000FDCF1EBC0DB407FEFDCF67FF04C01EBC13
:1001B0000DB407FEFDCF2A9A8EB508952A986F7167
:1001C000682B6EBD0DB407FEFDCF4EBD0DB407FE0E
:1001D000FDCF2A9A0895AC01FB012A988AE38EBDCF
:1001E0000DB407FEFDCF9A01DF0108C01EBC0DB49F
:1001F00007FEFDCF215030408EB58D93211531057E
:10020000A9F7E40FF51F10822A9A08959C01FB01BB
:100210002A988AE78EBD0DB407FEFDCF08C0808105
:100220008EBD0DB407FEFDCF215030403196211513
:100230003105A9F72A9A08951F93CF93DF93182FBA
:10024000C82FD0E0C076D07080910B0290E0C81724
:10025000D90791F080EA6FE143E00E94DE0085E07B
:10026000D595C7958A95E1F780E86FE14C2F0E94FC
:10027000DE00107610930B02DF91CF911F9108954D
:100280001F93182F0E941C0180E0612F0E94C9005B
:100290001F9108950F931F93182F062F0E941C0182
:1002A00080E4612F402F0E94DE001F910F9108957E
:1002B0000F931F93982F162F072F84ED692F0E94FD
:1002C0004A0186ED612F0E944A0187ED602F0E944E
:1002D0004A0118E203C0812F8A95F1F78AEE0E9445
:1002E000400180FDF8CF1F910F91089582E70E9491
:1002F00040010895EF92FF920F931F938C017B01B1
:1003000082E06FEF0E944A0183E069E10E944A01A6
:10031000602F615086E00E944A0198012150364EBC
:1003200087E0632F0E944A018AE760E040E00E9474
:10033000DE00C801B7010E94060180E86FE148E0D5
:100340000E94DE008CE10E94400181FF05C080EA2E
:100350006FE148E00E94DE001F910F91FF90EF9047
:100360000895A0E0B0E0E7EBF1E00C945D046C01CF
:100370005B0189E30E944001882319F400E010E04A
:100380005AC060910C0210910D0280E00E944A0157
:1003900081E0612F0E944A018AE360E00E94C90067
:1003A000182F8AE360E00E94C900382F20E0C12F97
:1003B000D0E0C22BD32BD0930D02C0930C028AE362
:1003C00060E00E94C900E82E8AE360E00E94C90054
:1003D000F82E8AE360E00E94C900082F10E08AE34B
:1003E00060E00E94C900382F20E0202B312B27FD30
:1003F00003C000E010E012C00E2D10E09F2D80E041
:10040000082B192BC6010197045010408017910743
:1004100008F48C01C801B5010E94EB008CE06C2F40
:100420000E944A018DE06D2F0E944A0180E86EE132
:1004300040E40E94DE00C801CDB7DEB7EAE00C94CC
:1004400079040F931F938C01229A2A9A84B18C62AB
:1004500084B924982A9A2B982D9880E58CBD8DB567
:1004600081608DBD8FEF60E04FEF0E94DE0082E380
:1004700090E00E94CF0210920D0210920C0288E0D0
:1004800060E00E944A0189E060E00E944A018CE03D
:1004900060E00E944A018DE060E00E944A018AE02B
:1004A0006EEF0E944A018BE069E10E944A0184E0FC
:1004B0006FEF0E944A0185E069E10E944A0186E0EF
:1004C0006FEF0E944A0187E06FE10E944A0188E3D2
:1004D00060EB0E944A0188E26FE30E944A0189E2D0
:1004E00060E30E944A0180E369EF0E944A0181E3D0
:1004F00067EF0E944A0180EC6DE00E944A0181ECA6
:1005000060E00E944A0180E862EC42E30E94DE0063
:1005100086EC62E10E944A0187EC6CE00E944A018D
:1005200084EC62E10E944A018AEC64EF0E944A0175
:100530008BEC61E00E944A0184EEF80160810E9428
:100540004A0185EEF80161810E944A0182EEF801BC
:1005500062810E944A0183EEF80163810E944A0190
:1005600080EEF80164810E944A0181EEF801658104
:100570000E944A0180E160E071E00E9458018FE131
:100580000E941C0180E86BE140EC0E94DE0080E8E4
:100590006FE144E00E94DE001F910F91089520E872
:1005A00037E004C0F9013197F1F701970097D1F7CF
:1005B00008952FE088E190E00FB6F894A895809315
:1005C00060000FBE209360000895A8950895EF92F3
:1005D000FF920F931F93CF93DF937C01413061F41F
:1005E000685070409B0140E050E0685F7F4F2F5E95
:1005F0003F4F4F4F5F4F12C0423029F020E030E0B4
:1006000040E050E00BC0685070409B0140E050E07B
:10061000685F7F4F2A5F3F4F4F4F5F4FE7018B016E
:100620000FC0F881E0E0898190E08E2B9F2BA0E045
:10063000B0E0280F391F4A1F5B1F2296025010405E
:100640000230110570F7FB01EE7FEE0DFF1D60FF1C
:100650000DC0908180E0AA2797FDA095BA2F02C017
:1006600040705070280F391F4A1F5B1FCA01AA270C
:10067000BB270097A105B10599F720953095C901D1
:10068000CDB7DEB7E6E00C947D04AC0120E030E0AD
:10069000F901EC5EFD4FDB01A20FB31F8C9180834B
:1006A0002F5F3F4F2430310599F720E030E0F9010A
:1006B000E25FFD4FDA01A20FB31F8C9180832F5FA1
:1006C0003F4F2630310599F70895FC016932B0F0AB
:1006D0008485883099F48585863081F4DF0196968B
:1006E000E4E1F2E09C918081981741F411963196F3
:1006F00082E0E831F807B1F781E0089580E00895DD
:10070000FC016A32B8F084858830A1F4858588239D
:1007100089F4DF01E4E1F2E05E969C915E978081CE
:10072000981741F41196319682E0E831F807A1F765
:1007300081E0089580E00895FC01AEE0B2E086819A
:1007400080838D918683319682E0A431B807B9F712
:100750000895CF93DF93EC01FC01A4E1B2E0828D18
:10076000868F8D91828F319682E0A831B807B9F7D4
:10077000188E198E80E48C8B1D8A8E8BCE010E967E
:1007800064E170E040E00E94E702988F898FDF917A
:10079000CF910895A0E0B0E0E0EDF3E00C946004A8
:1007A000EC017B01142FD22E032F0E949C031D3DD0
:1007B00008F01CED188A145E198BCE010E94A90363
:1007C0008AA18CA38BA18DA30AA3DBA21EA2145124
:1007D0001FA3185018A619A6DE019A9620E030E053
:1007E00007C0F701E20FF31F80818D932F5F3F4F0A
:1007F0002117B8F3012F10E0005F1F4FCE014A967A
:10080000B80141E00E94E70298A789A7C8014A966B
:10081000BE010E947A01CDB7DEB7E7E00C947C04FC
:100820001F93CF93DF93EC01162F0E949C03CE0100
:100830000E94A9031AA28CA1883F18F08DA18F5F96
:100840008DA38CA1885F8CA3812F90E0BE010E94B4
:100850007A01DF91CF911F910895CF93DF93EC013F
:100860000E949C031C8A82E08D8BFE01AEE0B2E008
:10087000868980A38D91868B319682E0A431B8075A
:10088000B9F7FE017C96A4E1B2E0808182878D9168
:10089000819382E0A831B807C1F78AE290E0BE01F7
:1008A0000E947A01DF91CF9108952F923F924F924B
:1008B0005F926F927F928F929F92AF92BF92CF92F0
:1008C000DF92EF92FF920F931F93CF93DF93CDB7F9
:1008D000DEB7CA1BDB0B0FB6F894DEBF0FBECDBF71
:1008E00009942A88398848885F846E847D848C8442
:1008F0009B84AA84B984C884DF80EE80FD800C814B
:100900001B81AA81B981CE0FD11D0FB6F894DEBF2D
:0C0910000FBECDBFED010895F894FFCF9D
:10091C0068656C6C6F005455581000240A00001860
:00000001FF
