:100000000C9434000C9451000C9451000C94510049
:100010000C9451000C9451000C9451000C9451001C
:100020000C9451000C9451000C9451000C9451000C
:100030000C9451000C9451000C9451000C945100FC
:100040000C9451000C9451000C9451000C945100EC
:100050000C9451000C9451000C9451000C945100DC
:100060000C9451000C94510011241FBECFEFD4E02A
:10007000DEBFCDBF11E0A0E0B1E0E2E3F9E002C0F5
:1000800005900D92AA30B107D9F712E0AAE0B1E0CD
:1000900001C01D92A231B107E1F70E9453000C94F8
:1000A00097040C9400000F931F93CF93DF9380E885
:1000B0008093610010926100209A289884E190E07A
:1000C0000E94DA02289A84E690E00E94DA02219ADD
:1000D000299A80E091E00E942C0284E160E878E0B7
:1000E0000E94630184EF91E00E94DA0284E160E9FA
:1000F00079E00E94630184EF91E00E94DA0284E1DA
:1001000060E878E00E94630184EF91E00E94DA02E7
:1001100084E160E979E00E94630184EF91E00E944C
:10012000DA0284E166E774E00E94630184E690E00D
:100130000E94DA0280E091E066E071E00E945003E4
:1001400010E08AEF90E06AE071E00E94BC01EC01EF
:100150000097B9F3082F8AE091E06C2F0E9470039A
:10016000882331F08AE091E06C2F0E943804E9CFB7
:100170008AE091E06C2F0E948B03882311F31123F6
:1001800019F0299A10E002C0299811E0809121010C
:100190008130B9F680912C01883099F68AE091E09F
:1001A000602F0E941B04CDCF2A98962F9F71982B09
:1001B0009EBD0DB407FEFDCF1EBC0DB407FEFDCFE6
:1001C00067FF04C01EBC0DB407FEFDCF2A9A8EB592
:1001D00008952A986F71682B6EBD0DB407FEFDCF90
:1001E0004EBD0DB407FEFDCF2A9A0895AC01FB0168
:1001F0002A988AE38EBD0DB407FEFDCF9A01DF0178
:1002000008C01EBC0DB407FEFDCF215030408EB596
:100210008D9321153105A9F7E40FF51F10822A9A55
:1002200008959C01FB012A988AE78EBD0DB407FE54
:10023000FDCF08C080818EBD0DB407FEFDCF2150DB
:100240003040319621153105A9F72A9A08951F9358
:10025000CF93DF93182FC82FD0E0C076D070809155
:10026000050290E0C817D90791F080EA6FE143E0FA
:100270000E94E90085E0D595C7958A95E1F780E869
:100280006FE14C2F0E94E900107610930502DF9178
:10029000CF911F9108951F93182F0E94270180E08E
:1002A000612F0E94D4001F9108950F931F93182F60
:1002B000062F0E94270180E4612F402F0E94E90051
:1002C0001F910F9108950F931F93982F162F072FAB
:1002D00084ED692F0E94550186ED612F0E94550122
:1002E00087ED602F0E94550118E203C0812F8A9587
:1002F000F1F78AEE0E944B0180FDF8CF1F910F911C
:10030000089582E70E944B010895EF92FF920F93A8
:100310001F938C017B0182E06FEF0E94550183E007
:1003200069E10E945501602F615086E00E945501ED
:1003300098012150364E87E0632F0E9455018AE7CD
:1003400060E040E00E94E900C801B7010E9411018D
:1003500080E86FE148E00E94E9008CE10E944B01D7
:1003600081FF05C080EA6FE148E00E94E9001F912B
:100370000F91FF90EF900895A0E0B0E0E2ECF1E083
:100380000C9468046C015B0189E30E944B01882393
:1003900019F400E010E05AC06091060210910702C3
:1003A00080E00E94550181E0612F0E9455018AE39F
:1003B00060E00E94D400182F8AE360E00E94D4001D
:1003C000382F20E0C12FD0E0C22BD32BD0930702CF
:1003D000C09306028AE360E00E94D400E82E8AE31C
:1003E00060E00E94D400F82E8AE360E00E94D4000E
:1003F000082F10E08AE360E00E94D400382F20E04C
:10040000202B312B27FD03C000E010E012C00E2D81
:1004100010E09F2D80E0082B192BC6010197045096
:1004200010408017910708F48C01C801B5010E94A3
:10043000F6008CE06C2F0E9455018DE06D2F0E941C
:10044000550180E86EE140E40E94E900C801CDB7A3
:10045000DEB7EAE00C9484040F931F938C01229A78
:100460002A9A84B18C6284B924982A9A2B982D9860
:1004700080E58CBD8DB581608DBD8FEF60E04FEF65
:100480000E94E90082E390E00E94DA0210920702E3
:100490001092060288E060E00E94550189E060E069
:1004A0000E9455018CE060E00E9455018DE060E003
:1004B0000E9455018AE06EEF0E9455018BE069E1D0
:1004C0000E94550184E06FEF0E94550185E069E1CB
:1004D0000E94550186E06FEF0E94550187E06FE1B1
:1004E0000E94550188E360EB0E94550188E26FE3AA
:1004F0000E94550189E260E30E94550180E369EFA3
:100500000E94550181E367EF0E94550180EC6DE088
:100510000E94550181EC60E00E94550180E862EC88
:1005200042E30E94E90086EC62E10E94550187ECFB
:100530006CE00E94550184EC62E10E9455018AEC56
:1005400064EF0E9455018BEC61E00E94550184EE3E
:10055000F80160810E94550185EEF80161810E94D9
:10056000550182EEF80162810E94550183EEF80187
:1005700063810E94550180EEF80164810E9455015B
:1005800081EEF80165810E94550180E160E071E033
:100590000E9463018FE10E94270180E86BE140EC3B
:1005A0000E94E90080E86FE144E00E94E9001F91A9
:1005B0000F91089520E837E004C0F9013197F1F771
:1005C00001970097D1F708952FE088E190E00FB6EA
:1005D000F894A895809360000FBE20936000089562
:1005E000A8950895EF92FF920F931F93CF93DF93F7
:1005F0007C01413061F4685070409B0140E050E064
:10060000685F7F4F2F5E3F4F4F4F5F4F12C04230AA
:1006100029F020E030E040E050E00BC0685070402E
:100620009B0140E050E0685F7F4F2A5F3F4F4F4F94
:100630005F4FE7018B010FC0F881E0E0898190E016
:100640008E2B9F2BA0E0B0E0280F391F4A1F5B1FA5
:100650002296025010400230110570F7FB01EE7F28
:10066000EE0DFF1D60FF0DC0908180E0AA2797FD71
:10067000A095BA2F02C040705070280F391F4A1F32
:100680005B1FCA01AA27BB270097A105B10599F7EF
:1006900020953095C901CDB7DEB7E6E00C9488040B
:1006A000AC0120E030E0F901E25FFD4FDB01A20F79
:1006B000B31F8C9180832F5F3F4F2430310599F712
:1006C00020E030E0F901E85FFD4FDA01A20FB31F2F
:1006D0008C9180832F5F3F4F2630310599F7089525
:1006E000FC016932B0F08485883099F485858630C4
:1006F00081F4DF019696EEE0F2E09C9180819817FC
:1007000041F41196319682E0E231F807B1F781E0C9
:10071000089580E00895FC016A32B8F0848588303D
:10072000A1F48585882389F4DF01EEE0F2E05E968E
:100730009C915E978081981741F41196319682E0E2
:10074000E231F807A1F781E0089580E00895FC0107
:10075000A8E0B2E0868180838D918683319682E025
:10076000AE30B807B9F70895CF93DF93EC01FC01E1
:10077000AEE0B2E0828D868F8D91828F319682E0DD
:10078000A231B807B9F7188E198E80E48C8B1D8AB8
:100790008E8BCE010E9664E170E040E00E94F20282
:1007A000988F898FDF91CF910895A0E0B0E0EBEDB5
:1007B000F3E00C946B04EC017B01142FD22E032F79
:1007C0000E94A7031D3D08F01CED188A145E198BCA
:1007D000CE010E94B4038AA18CA38BA18DA30AA38E
:1007E000DBA21EA214511FA3185018A619A6DE01E1
:1007F0009A9620E030E007C0F701E20FF31F8081F6
:100800008D932F5F3F4F2117B8F3012F10E0005F4A
:100810001F4FCE014A96B80141E00E94F20298A70C
:1008200089A7C8014A96BE010E948501CDB7DEB7EF
:10083000E7E00C9487041F93CF93DF93EC01162F0E
:100840000E94A703CE010E94B4031AA28CA1883F84
:1008500018F08DA18F5F8DA38CA1885F8CA3812F51
:1008600090E0BE010E948501DF91CF911F91089514
:10087000CF93DF93EC010E94A7031C8A82E08D8B4B
:10088000FE01A8E0B2E0868980A38D91868B319627
:1008900082E0AE30B807B9F7FE017C96AEE0B2E078
:1008A000808182878D91819382E0A231B807C1F760
:1008B0008AE290E0BE010E948501DF91CF91089508
:1008C0002F923F924F925F926F927F928F929F9260
:1008D000AF92BF92CF92DF92EF92FF920F931F934E
:1008E000CF93DF93CDB7DEB7CA1BDB0B0FB6F894FF
:1008F000DEBF0FBECDBF09942A88398848885F843F
:100900006E847D848C849B84AA84B984C884DF80AF
:10091000EE80FD800C811B81AA81B981CE0FD11D93
:100920000FB6F894DEBF0FBECDBFED010895F89469
:02093000FFCFF7
:0A0932005455581000240A00001864
:00000001FF
