:100000000C9434000C943E000C943E000C943E0082
:100010000C943E000C943E000C943E000C943E0068
:100020000C943E000C943E000C943E000C943E0058
:100030000C943E000C943E000C943E000C943E0048
:100040000C943E000C943E000C943E000C943E0038
:100050000C943E000C943E000C943E000C943E0028
:100060000C943E000C943E0011241FBECFEFD4E050
:10007000DEBFCDBF0E944A000C9463000C940000C8
:1000800020E837E004C0F9013197F1F701970097B4
:10009000D1F7089580E88093610010926100219A61
:1000A00020E837E0299884EF91E0F9013197F1F7E2
:1000B0000197D9F7299A84EF91E0F9013197F1F787
:0A00C0000197D9F7EFCFF894FFCFB6
:00000001FF
