No.     Time        Source                Destination           Protocol Info
      1 0.000000    IntelCor_15:2c:96     Broadcast             ARP      Who has 10.0.0.24?  Tell 10.0.0.7

Frame 1 (42 bytes on wire, 42 bytes captured)
    Arrival Time: Jun 25, 2006 19:18:08.795265000
    Time delta from previous packet: 0.000000000 seconds
    Time since reference or first frame: 0.000000000 seconds
    Frame Number: 1
    Packet Length: 42 bytes
    Capture Length: 42 bytes
    Protocols in frame: eth:arp
Ethernet II, Src: IntelCor_15:2c:96 (00:15:00:15:2c:96), Dst: Broadcast (ff:ff:ff:ff:ff:ff)
    Destination: Broadcast (ff:ff:ff:ff:ff:ff)
    Source: IntelCor_15:2c:96 (00:15:00:15:2c:96)
    Type: ARP (0x0806)
Address Resolution Protocol (request)
    Hardware type: Ethernet (0x0001)
    Protocol type: IP (0x0800)
    Hardware size: 6
    Protocol size: 4
    Opcode: request (0x0001)
    Sender MAC address: IntelCor_15:2c:96 (00:15:00:15:2c:96)
    Sender IP address: 10.0.0.7 (10.0.0.7)
    Target MAC address: 00:00:00_00:00:00 (00:00:00:00:00:00)
    Target IP address: 10.0.0.24 (10.0.0.24)

0000  ff ff ff ff ff ff 00 15 00 15 2c 96 08 06 00 01   ..........,.....
0010  08 00 06 04 00 01 00 15 00 15 2c 96 0a 00 00 07   ..........,.....
0020  00 00 00 00 00 00 0a 00 00 18                     ..........
No.     Time        Source                Destination           Protocol Info
      2 0.001956    54:55:58:10:00:24     IntelCor_15:2c:96     ARP      10.0.0.24 is at 54:55:58:10:00:24

Frame 2 (60 bytes on wire, 60 bytes captured)
    Arrival Time: Jun 25, 2006 19:18:08.797221000
    Time delta from previous packet: 0.001956000 seconds
    Time since reference or first frame: 0.001956000 seconds
    Frame Number: 2
    Packet Length: 60 bytes
    Capture Length: 60 bytes
    Protocols in frame: eth:arp
Ethernet II, Src: 54:55:58:10:00:24 (54:55:58:10:00:24), Dst: IntelCor_15:2c:96 (00:15:00:15:2c:96)
    Destination: IntelCor_15:2c:96 (00:15:00:15:2c:96)
    Source: 54:55:58:10:00:24 (54:55:58:10:00:24)
    Type: ARP (0x0806)
    Trailer: 000000000000000000000000000000000000
Address Resolution Protocol (reply)
    Hardware type: Ethernet (0x0001)
    Protocol type: IP (0x0800)
    Hardware size: 6
    Protocol size: 4
    Opcode: reply (0x0002)
    Sender MAC address: 54:55:58:10:00:24 (54:55:58:10:00:24)
    Sender IP address: 10.0.0.24 (10.0.0.24)
    Target MAC address: IntelCor_15:2c:96 (00:15:00:15:2c:96)
    Target IP address: 10.0.0.7 (10.0.0.7)

0000  00 15 00 15 2c 96 54 55 58 10 00 24 08 06 00 01   ....,.TUX..$....
0010  08 00 06 04 00 02 54 55 58 10 00 24 0a 00 00 18   ......TUX..$....
0020  00 15 00 15 2c 96 0a 00 00 07 00 00 00 00 00 00   ....,...........
0030  00 00 00 00 00 00 00 00 00 00 00 00               ............
No.     Time        Source                Destination           Protocol Info
      3 0.001971    10.0.0.7              10.0.0.24             UDP      Source port: 32771  Destination port: 1200

Frame 3 (53 bytes on wire, 53 bytes captured)
    Arrival Time: Jun 25, 2006 19:18:08.797236000
    Time delta from previous packet: 0.000015000 seconds
    Time since reference or first frame: 0.001971000 seconds
    Frame Number: 3
    Packet Length: 53 bytes
    Capture Length: 53 bytes
    Protocols in frame: eth:ip:udp:data
Ethernet II, Src: IntelCor_15:2c:96 (00:15:00:15:2c:96), Dst: 54:55:58:10:00:24 (54:55:58:10:00:24)
    Destination: 54:55:58:10:00:24 (54:55:58:10:00:24)
    Source: IntelCor_15:2c:96 (00:15:00:15:2c:96)
    Type: IP (0x0800)
Internet Protocol, Src: 10.0.0.7 (10.0.0.7), Dst: 10.0.0.24 (10.0.0.24)
    Version: 4
    Header length: 20 bytes
    Differentiated Services Field: 0x00 (DSCP 0x00: Default; ECN: 0x00)
        0000 00.. = Differentiated Services Codepoint: Default (0x00)
        .... ..0. = ECN-Capable Transport (ECT): 0
        .... ...0 = ECN-CE: 0
    Total Length: 39
    Identification: 0x0000 (0)
    Flags: 0x04 (Don't Fragment)
        0... = Reserved bit: Not set
        .1.. = Don't fragment: Set
        ..0. = More fragments: Not set
    Fragment offset: 0
    Time to live: 64
    Protocol: UDP (0x11)
    Header checksum: 0x26a8 [correct]
        Good: True
        Bad : False
    Source: 10.0.0.7 (10.0.0.7)
    Destination: 10.0.0.24 (10.0.0.24)
User Datagram Protocol, Src Port: 32771 (32771), Dst Port: 1200 (1200)
    Source port: 32771 (32771)
    Destination port: 1200 (1200)
    Length: 19
    Checksum: 0xc0f6 [correct]
Data (11 bytes)

0000  54 55 58 10 00 24 00 15 00 15 2c 96 08 00 45 00   TUX..$....,...E.
0010  00 27 00 00 40 00 40 11 26 a8 0a 00 00 07 0a 00   .'..@.@.&.......
0020  00 18 80 03 04 b0 00 13 c0 f6 73 65 63 72 65 74   ..........secret
0030  2c 74 3d 3f 00                                    ,t=?.
No.     Time        Source                Destination           Protocol Info
      4 0.003877    10.0.0.24             10.0.0.7              UDP      Source port: 32771  Destination port: 1200

Frame 4 (60 bytes on wire, 60 bytes captured)
    Arrival Time: Jun 25, 2006 19:18:08.799142000
    Time delta from previous packet: 0.001906000 seconds
    Time since reference or first frame: 0.003877000 seconds
    Frame Number: 4
    Packet Length: 60 bytes
    Capture Length: 60 bytes
    Protocols in frame: eth:ip:udp:data
Ethernet II, Src: 54:55:58:10:00:24 (54:55:58:10:00:24), Dst: IntelCor_15:2c:96 (00:15:00:15:2c:96)
    Destination: IntelCor_15:2c:96 (00:15:00:15:2c:96)
    Source: 54:55:58:10:00:24 (54:55:58:10:00:24)
    Type: IP (0x0800)
    Trailer: 000000000000000000000000000000
Internet Protocol, Src: 10.0.0.24 (10.0.0.24), Dst: 10.0.0.7 (10.0.0.7)
    Version: 4
    Header length: 20 bytes
    Differentiated Services Field: 0x00 (DSCP 0x00: Default; ECN: 0x00)
        0000 00.. = Differentiated Services Codepoint: Default (0x00)
        .... ..0. = ECN-Capable Transport (ECT): 0
        .... ...0 = ECN-CE: 0
    Total Length: 31
    Identification: 0x0000 (0)
    Flags: 0x04 (Don't Fragment)
        0... = Reserved bit: Not set
        .1.. = Don't fragment: Set
        ..0. = More fragments: Not set
    Fragment offset: 0
    Time to live: 64
    Protocol: UDP (0x11)
    Header checksum: 0x26b0 [correct]
        Good: True
        Bad : False
    Source: 10.0.0.24 (10.0.0.24)
    Destination: 10.0.0.7 (10.0.0.7)
User Datagram Protocol, Src Port: 32771 (32771), Dst Port: 1200 (1200)
    Source port: 32771 (32771)
    Destination port: 1200 (1200)
    Length: 11
    Checksum: 0xc2c8 [correct]
Data (3 bytes)

0000  00 15 00 15 2c 96 54 55 58 10 00 24 08 00 45 00   ....,.TUX..$..E.
0010  00 1f 00 00 40 00 40 11 26 b0 0a 00 00 18 0a 00   ....@.@.&.......
0020  00 07 80 03 04 b0 00 0b c2 c8 74 3d 30 00 00 00   ..........t=0...
0030  00 00 00 00 00 00 00 00 00 00 00 00               ............
No.     Time        Source                Destination           Protocol Info
      5 7.276763    10.0.0.7              10.0.0.24             UDP      Source port: 32771  Destination port: 1200

Frame 5 (53 bytes on wire, 53 bytes captured)
    Arrival Time: Jun 25, 2006 19:18:16.072028000
    Time delta from previous packet: 7.272886000 seconds
    Time since reference or first frame: 7.276763000 seconds
    Frame Number: 5
    Packet Length: 53 bytes
    Capture Length: 53 bytes
    Protocols in frame: eth:ip:udp:data
Ethernet II, Src: IntelCor_15:2c:96 (00:15:00:15:2c:96), Dst: 54:55:58:10:00:24 (54:55:58:10:00:24)
    Destination: 54:55:58:10:00:24 (54:55:58:10:00:24)
    Source: IntelCor_15:2c:96 (00:15:00:15:2c:96)
    Type: IP (0x0800)
Internet Protocol, Src: 10.0.0.7 (10.0.0.7), Dst: 10.0.0.24 (10.0.0.24)
    Version: 4
    Header length: 20 bytes
    Differentiated Services Field: 0x00 (DSCP 0x00: Default; ECN: 0x00)
        0000 00.. = Differentiated Services Codepoint: Default (0x00)
        .... ..0. = ECN-Capable Transport (ECT): 0
        .... ...0 = ECN-CE: 0
    Total Length: 39
    Identification: 0x0000 (0)
    Flags: 0x04 (Don't Fragment)
        0... = Reserved bit: Not set
        .1.. = Don't fragment: Set
        ..0. = More fragments: Not set
    Fragment offset: 0
    Time to live: 64
    Protocol: UDP (0x11)
    Header checksum: 0x26a8 [correct]
        Good: True
        Bad : False
    Source: 10.0.0.7 (10.0.0.7)
    Destination: 10.0.0.24 (10.0.0.24)
User Datagram Protocol, Src Port: 32771 (32771), Dst Port: 1200 (1200)
    Source port: 32771 (32771)
    Destination port: 1200 (1200)
    Length: 19
    Checksum: 0xc104 [correct]
Data (11 bytes)

0000  54 55 58 10 00 24 00 15 00 15 2c 96 08 00 45 00   TUX..$....,...E.
0010  00 27 00 00 40 00 40 11 26 a8 0a 00 00 07 0a 00   .'..@.@.&.......
0020  00 18 80 03 04 b0 00 13 c1 04 73 65 63 72 65 74   ..........secret
0030  2c 74 3d 31 00                                    ,t=1.
No.     Time        Source                Destination           Protocol Info
      6 7.278657    10.0.0.24             10.0.0.7              UDP      Source port: 32771  Destination port: 1200

Frame 6 (60 bytes on wire, 60 bytes captured)
    Arrival Time: Jun 25, 2006 19:18:16.073922000
    Time delta from previous packet: 0.001894000 seconds
    Time since reference or first frame: 7.278657000 seconds
    Frame Number: 6
    Packet Length: 60 bytes
    Capture Length: 60 bytes
    Protocols in frame: eth:ip:udp:data
Ethernet II, Src: 54:55:58:10:00:24 (54:55:58:10:00:24), Dst: IntelCor_15:2c:96 (00:15:00:15:2c:96)
    Destination: IntelCor_15:2c:96 (00:15:00:15:2c:96)
    Source: 54:55:58:10:00:24 (54:55:58:10:00:24)
    Type: IP (0x0800)
    Trailer: 000000000000000000000000000000
Internet Protocol, Src: 10.0.0.24 (10.0.0.24), Dst: 10.0.0.7 (10.0.0.7)
    Version: 4
    Header length: 20 bytes
    Differentiated Services Field: 0x00 (DSCP 0x00: Default; ECN: 0x00)
        0000 00.. = Differentiated Services Codepoint: Default (0x00)
        .... ..0. = ECN-Capable Transport (ECT): 0
        .... ...0 = ECN-CE: 0
    Total Length: 31
    Identification: 0x0000 (0)
    Flags: 0x04 (Don't Fragment)
        0... = Reserved bit: Not set
        .1.. = Don't fragment: Set
        ..0. = More fragments: Not set
    Fragment offset: 0
    Time to live: 64
    Protocol: UDP (0x11)
    Header checksum: 0x26b0 [correct]
        Good: True
        Bad : False
    Source: 10.0.0.24 (10.0.0.24)
    Destination: 10.0.0.7 (10.0.0.7)
User Datagram Protocol, Src Port: 32771 (32771), Dst Port: 1200 (1200)
    Source port: 32771 (32771)
    Destination port: 1200 (1200)
    Length: 11
    Checksum: 0xc1c8 [correct]
Data (3 bytes)

0000  00 15 00 15 2c 96 54 55 58 10 00 24 08 00 45 00   ....,.TUX..$..E.
0010  00 1f 00 00 40 00 40 11 26 b0 0a 00 00 18 0a 00   ....@.@.&.......
0020  00 07 80 03 04 b0 00 0b c1 c8 74 3d 31 00 00 00   ..........t=1...
0030  00 00 00 00 00 00 00 00 00 00 00 00               ............
No.     Time        Source                Destination           Protocol Info
      7 11.682563   10.0.0.7              10.0.0.24             UDP      Source port: 32771  Destination port: 1200

Frame 7 (53 bytes on wire, 53 bytes captured)
    Arrival Time: Jun 25, 2006 19:18:20.477828000
    Time delta from previous packet: 4.403906000 seconds
    Time since reference or first frame: 11.682563000 seconds
    Frame Number: 7
    Packet Length: 53 bytes
    Capture Length: 53 bytes
    Protocols in frame: eth:ip:udp:data
Ethernet II, Src: IntelCor_15:2c:96 (00:15:00:15:2c:96), Dst: 54:55:58:10:00:24 (54:55:58:10:00:24)
    Destination: 54:55:58:10:00:24 (54:55:58:10:00:24)
    Source: IntelCor_15:2c:96 (00:15:00:15:2c:96)
    Type: IP (0x0800)
Internet Protocol, Src: 10.0.0.7 (10.0.0.7), Dst: 10.0.0.24 (10.0.0.24)
    Version: 4
    Header length: 20 bytes
    Differentiated Services Field: 0x00 (DSCP 0x00: Default; ECN: 0x00)
        0000 00.. = Differentiated Services Codepoint: Default (0x00)
        .... ..0. = ECN-Capable Transport (ECT): 0
        .... ...0 = ECN-CE: 0
    Total Length: 39
    Identification: 0x0000 (0)
    Flags: 0x04 (Don't Fragment)
        0... = Reserved bit: Not set
        .1.. = Don't fragment: Set
        ..0. = More fragments: Not set
    Fragment offset: 0
    Time to live: 64
    Protocol: UDP (0x11)
    Header checksum: 0x26a8 [correct]
        Good: True
        Bad : False
    Source: 10.0.0.7 (10.0.0.7)
    Destination: 10.0.0.24 (10.0.0.24)
User Datagram Protocol, Src Port: 32771 (32771), Dst Port: 1200 (1200)
    Source port: 32771 (32771)
    Destination port: 1200 (1200)
    Length: 19
    Checksum: 0xc105 [correct]
Data (11 bytes)

0000  54 55 58 10 00 24 00 15 00 15 2c 96 08 00 45 00   TUX..$....,...E.
0010  00 27 00 00 40 00 40 11 26 a8 0a 00 00 07 0a 00   .'..@.@.&.......
0020  00 18 80 03 04 b0 00 13 c1 05 73 65 63 72 65 74   ..........secret
0030  2c 74 3d 30 00                                    ,t=0.
No.     Time        Source                Destination           Protocol Info
      8 11.684477   10.0.0.24             10.0.0.7              UDP      Source port: 32771  Destination port: 1200

Frame 8 (60 bytes on wire, 60 bytes captured)
    Arrival Time: Jun 25, 2006 19:18:20.479742000
    Time delta from previous packet: 0.001914000 seconds
    Time since reference or first frame: 11.684477000 seconds
    Frame Number: 8
    Packet Length: 60 bytes
    Capture Length: 60 bytes
    Protocols in frame: eth:ip:udp:data
Ethernet II, Src: 54:55:58:10:00:24 (54:55:58:10:00:24), Dst: IntelCor_15:2c:96 (00:15:00:15:2c:96)
    Destination: IntelCor_15:2c:96 (00:15:00:15:2c:96)
    Source: 54:55:58:10:00:24 (54:55:58:10:00:24)
    Type: IP (0x0800)
    Trailer: 000000000000000000000000000000
Internet Protocol, Src: 10.0.0.24 (10.0.0.24), Dst: 10.0.0.7 (10.0.0.7)
    Version: 4
    Header length: 20 bytes
    Differentiated Services Field: 0x00 (DSCP 0x00: Default; ECN: 0x00)
        0000 00.. = Differentiated Services Codepoint: Default (0x00)
        .... ..0. = ECN-Capable Transport (ECT): 0
        .... ...0 = ECN-CE: 0
    Total Length: 31
    Identification: 0x0000 (0)
    Flags: 0x04 (Don't Fragment)
        0... = Reserved bit: Not set
        .1.. = Don't fragment: Set
        ..0. = More fragments: Not set
    Fragment offset: 0
    Time to live: 64
    Protocol: UDP (0x11)
    Header checksum: 0x26b0 [correct]
        Good: True
        Bad : False
    Source: 10.0.0.24 (10.0.0.24)
    Destination: 10.0.0.7 (10.0.0.7)
User Datagram Protocol, Src Port: 32771 (32771), Dst Port: 1200 (1200)
    Source port: 32771 (32771)
    Destination port: 1200 (1200)
    Length: 11
    Checksum: 0xc2c8 [correct]
Data (3 bytes)

0000  00 15 00 15 2c 96 54 55 58 10 00 24 08 00 45 00   ....,.TUX..$..E.
0010  00 1f 00 00 40 00 40 11 26 b0 0a 00 00 18 0a 00   ....@.@.&.......
0020  00 07 80 03 04 b0 00 0b c2 c8 74 3d 30 00 00 00   ..........t=0...
0030  00 00 00 00 00 00 00 00 00 00 00 00               ............
No.     Time        Source                Destination           Protocol Info
     16 16.355353   10.0.0.7              10.0.0.24             ICMP     Echo (ping) request

Frame 16 (98 bytes on wire, 98 bytes captured)
    Arrival Time: Jun 25, 2006 19:18:25.150618000
    Time delta from previous packet: 4.670876000 seconds
    Time since reference or first frame: 16.355353000 seconds
    Frame Number: 16
    Packet Length: 98 bytes
    Capture Length: 98 bytes
    Protocols in frame: eth:ip:icmp:data
Ethernet II, Src: IntelCor_15:2c:96 (00:15:00:15:2c:96), Dst: 54:55:58:10:00:24 (54:55:58:10:00:24)
    Destination: 54:55:58:10:00:24 (54:55:58:10:00:24)
    Source: IntelCor_15:2c:96 (00:15:00:15:2c:96)
    Type: IP (0x0800)
Internet Protocol, Src: 10.0.0.7 (10.0.0.7), Dst: 10.0.0.24 (10.0.0.24)
    Version: 4
    Header length: 20 bytes
    Differentiated Services Field: 0x00 (DSCP 0x00: Default; ECN: 0x00)
        0000 00.. = Differentiated Services Codepoint: Default (0x00)
        .... ..0. = ECN-Capable Transport (ECT): 0
        .... ...0 = ECN-CE: 0
    Total Length: 84
    Identification: 0x0000 (0)
    Flags: 0x04 (Don't Fragment)
        0... = Reserved bit: Not set
        .1.. = Don't fragment: Set
        ..0. = More fragments: Not set
    Fragment offset: 0
    Time to live: 64
    Protocol: ICMP (0x01)
    Header checksum: 0x268b [correct]
        Good: True
        Bad : False
    Source: 10.0.0.7 (10.0.0.7)
    Destination: 10.0.0.24 (10.0.0.24)
Internet Control Message Protocol
    Type: 8 (Echo (ping) request)
    Code: 0 
    Checksum: 0x7981 [correct]
    Identifier: 0x5324
    Sequence number: 0x0001
    Data (56 bytes)

0000  54 55 58 10 00 24 00 15 00 15 2c 96 08 00 45 00   TUX..$....,...E.
0010  00 54 00 00 40 00 40 01 26 8b 0a 00 00 07 0a 00   .T..@.@.&.......
0020  00 18 08 00 79 81 53 24 00 01 61 c5 9e 44 3e 4c   ....y.S$..a..D>L
0030  02 00 08 09 0a 0b 0c 0d 0e 0f 10 11 12 13 14 15   ................
0040  16 17 18 19 1a 1b 1c 1d 1e 1f 20 21 22 23 24 25   .......... !"#$%
0050  26 27 28 29 2a 2b 2c 2d 2e 2f 30 31 32 33 34 35   &'()*+,-./012345
0060  36 37                                             67
No.     Time        Source                Destination           Protocol Info
     17 16.357710   10.0.0.24             10.0.0.7              ICMP     Echo (ping) reply

Frame 17 (98 bytes on wire, 98 bytes captured)
    Arrival Time: Jun 25, 2006 19:18:25.152975000
    Time delta from previous packet: 0.002357000 seconds
    Time since reference or first frame: 16.357710000 seconds
    Frame Number: 17
    Packet Length: 98 bytes
    Capture Length: 98 bytes
    Protocols in frame: eth:ip:icmp:data
Ethernet II, Src: 54:55:58:10:00:24 (54:55:58:10:00:24), Dst: IntelCor_15:2c:96 (00:15:00:15:2c:96)
    Destination: IntelCor_15:2c:96 (00:15:00:15:2c:96)
    Source: 54:55:58:10:00:24 (54:55:58:10:00:24)
    Type: IP (0x0800)
Internet Protocol, Src: 10.0.0.24 (10.0.0.24), Dst: 10.0.0.7 (10.0.0.7)
    Version: 4
    Header length: 20 bytes
    Differentiated Services Field: 0x00 (DSCP 0x00: Default; ECN: 0x00)
        0000 00.. = Differentiated Services Codepoint: Default (0x00)
        .... ..0. = ECN-Capable Transport (ECT): 0
        .... ...0 = ECN-CE: 0
    Total Length: 84
    Identification: 0x0000 (0)
    Flags: 0x04 (Don't Fragment)
        0... = Reserved bit: Not set
        .1.. = Don't fragment: Set
        ..0. = More fragments: Not set
    Fragment offset: 0
    Time to live: 64
    Protocol: ICMP (0x01)
    Header checksum: 0x268b [correct]
        Good: True
        Bad : False
    Source: 10.0.0.24 (10.0.0.24)
    Destination: 10.0.0.7 (10.0.0.7)
Internet Control Message Protocol
    Type: 0 (Echo (ping) reply)
    Code: 0 
    Checksum: 0x8181 [correct]
    Identifier: 0x5324
    Sequence number: 0x0001
    Data (56 bytes)

0000  00 15 00 15 2c 96 54 55 58 10 00 24 08 00 45 00   ....,.TUX..$..E.
0010  00 54 00 00 40 00 40 01 26 8b 0a 00 00 18 0a 00   .T..@.@.&.......
0020  00 07 00 00 81 81 53 24 00 01 61 c5 9e 44 3e 4c   ......S$..a..D>L
0030  02 00 08 09 0a 0b 0c 0d 0e 0f 10 11 12 13 14 15   ................
0040  16 17 18 19 1a 1b 1c 1d 1e 1f 20 21 22 23 24 25   .......... !"#$%
0050  26 27 28 29 2a 2b 2c 2d 2e 2f 30 31 32 33 34 35   &'()*+,-./012345
0060  36 37                                             67
No.     Time        Source                Destination           Protocol Info
     18 17.360902   10.0.0.7              10.0.0.24             ICMP     Echo (ping) request

Frame 18 (98 bytes on wire, 98 bytes captured)
    Arrival Time: Jun 25, 2006 19:18:26.156167000
    Time delta from previous packet: 1.003192000 seconds
    Time since reference or first frame: 17.360902000 seconds
    Frame Number: 18
    Packet Length: 98 bytes
    Capture Length: 98 bytes
    Protocols in frame: eth:ip:icmp:data
Ethernet II, Src: IntelCor_15:2c:96 (00:15:00:15:2c:96), Dst: 54:55:58:10:00:24 (54:55:58:10:00:24)
    Destination: 54:55:58:10:00:24 (54:55:58:10:00:24)
    Source: IntelCor_15:2c:96 (00:15:00:15:2c:96)
    Type: IP (0x0800)
Internet Protocol, Src: 10.0.0.7 (10.0.0.7), Dst: 10.0.0.24 (10.0.0.24)
    Version: 4
    Header length: 20 bytes
    Differentiated Services Field: 0x00 (DSCP 0x00: Default; ECN: 0x00)
        0000 00.. = Differentiated Services Codepoint: Default (0x00)
        .... ..0. = ECN-Capable Transport (ECT): 0
        .... ...0 = ECN-CE: 0
    Total Length: 84
    Identification: 0x0000 (0)
    Flags: 0x04 (Don't Fragment)
        0... = Reserved bit: Not set
        .1.. = Don't fragment: Set
        ..0. = More fragments: Not set
    Fragment offset: 0
    Time to live: 64
    Protocol: ICMP (0x01)
    Header checksum: 0x268b [correct]
        Good: True
        Bad : False
    Source: 10.0.0.7 (10.0.0.7)
    Destination: 10.0.0.24 (10.0.0.24)
Internet Control Message Protocol
    Type: 8 (Echo (ping) request)
    Code: 0 
    Checksum: 0xc96a [correct]
    Identifier: 0x5324
    Sequence number: 0x0002
    Data (56 bytes)

0000  54 55 58 10 00 24 00 15 00 15 2c 96 08 00 45 00   TUX..$....,...E.
0010  00 54 00 00 40 00 40 01 26 8b 0a 00 00 07 0a 00   .T..@.@.&.......
0020  00 18 08 00 c9 6a 53 24 00 02 62 c5 9e 44 ed 61   .....jS$..b..D.a
0030  02 00 08 09 0a 0b 0c 0d 0e 0f 10 11 12 13 14 15   ................
0040  16 17 18 19 1a 1b 1c 1d 1e 1f 20 21 22 23 24 25   .......... !"#$%
0050  26 27 28 29 2a 2b 2c 2d 2e 2f 30 31 32 33 34 35   &'()*+,-./012345
0060  36 37                                             67
No.     Time        Source                Destination           Protocol Info
     19 17.363179   10.0.0.24             10.0.0.7              ICMP     Echo (ping) reply

Frame 19 (98 bytes on wire, 98 bytes captured)
    Arrival Time: Jun 25, 2006 19:18:26.158444000
    Time delta from previous packet: 0.002277000 seconds
    Time since reference or first frame: 17.363179000 seconds
    Frame Number: 19
    Packet Length: 98 bytes
    Capture Length: 98 bytes
    Protocols in frame: eth:ip:icmp:data
Ethernet II, Src: 54:55:58:10:00:24 (54:55:58:10:00:24), Dst: IntelCor_15:2c:96 (00:15:00:15:2c:96)
    Destination: IntelCor_15:2c:96 (00:15:00:15:2c:96)
    Source: 54:55:58:10:00:24 (54:55:58:10:00:24)
    Type: IP (0x0800)
Internet Protocol, Src: 10.0.0.24 (10.0.0.24), Dst: 10.0.0.7 (10.0.0.7)
    Version: 4
    Header length: 20 bytes
    Differentiated Services Field: 0x00 (DSCP 0x00: Default; ECN: 0x00)
        0000 00.. = Differentiated Services Codepoint: Default (0x00)
        .... ..0. = ECN-Capable Transport (ECT): 0
        .... ...0 = ECN-CE: 0
    Total Length: 84
    Identification: 0x0000 (0)
    Flags: 0x04 (Don't Fragment)
        0... = Reserved bit: Not set
        .1.. = Don't fragment: Set
        ..0. = More fragments: Not set
    Fragment offset: 0
    Time to live: 64
    Protocol: ICMP (0x01)
    Header checksum: 0x268b [correct]
        Good: True
        Bad : False
    Source: 10.0.0.24 (10.0.0.24)
    Destination: 10.0.0.7 (10.0.0.7)
Internet Control Message Protocol
    Type: 0 (Echo (ping) reply)
    Code: 0 
    Checksum: 0xd16a [correct]
    Identifier: 0x5324
    Sequence number: 0x0002
    Data (56 bytes)

0000  00 15 00 15 2c 96 54 55 58 10 00 24 08 00 45 00   ....,.TUX..$..E.
0010  00 54 00 00 40 00 40 01 26 8b 0a 00 00 18 0a 00   .T..@.@.&.......
0020  00 07 00 00 d1 6a 53 24 00 02 62 c5 9e 44 ed 61   .....jS$..b..D.a
0030  02 00 08 09 0a 0b 0c 0d 0e 0f 10 11 12 13 14 15   ................
0040  16 17 18 19 1a 1b 1c 1d 1e 1f 20 21 22 23 24 25   .......... !"#$%
0050  26 27 28 29 2a 2b 2c 2d 2e 2f 30 31 32 33 34 35   &'()*+,-./012345
0060  36 37                                             67
No.     Time        Source                Destination           Protocol Info
     20 18.364973   10.0.0.7              10.0.0.24             ICMP     Echo (ping) request

Frame 20 (98 bytes on wire, 98 bytes captured)
    Arrival Time: Jun 25, 2006 19:18:27.160238000
    Time delta from previous packet: 1.001794000 seconds
    Time since reference or first frame: 18.364973000 seconds
    Frame Number: 20
    Packet Length: 98 bytes
    Capture Length: 98 bytes
    Protocols in frame: eth:ip:icmp:data
Ethernet II, Src: IntelCor_15:2c:96 (00:15:00:15:2c:96), Dst: 54:55:58:10:00:24 (54:55:58:10:00:24)
    Destination: 54:55:58:10:00:24 (54:55:58:10:00:24)
    Source: IntelCor_15:2c:96 (00:15:00:15:2c:96)
    Type: IP (0x0800)
Internet Protocol, Src: 10.0.0.7 (10.0.0.7), Dst: 10.0.0.24 (10.0.0.24)
    Version: 4
    Header length: 20 bytes
    Differentiated Services Field: 0x00 (DSCP 0x00: Default; ECN: 0x00)
        0000 00.. = Differentiated Services Codepoint: Default (0x00)
        .... ..0. = ECN-Capable Transport (ECT): 0
        .... ...0 = ECN-CE: 0
    Total Length: 84
    Identification: 0x0000 (0)
    Flags: 0x04 (Don't Fragment)
        0... = Reserved bit: Not set
        .1.. = Don't fragment: Set
        ..0. = More fragments: Not set
    Fragment offset: 0
    Time to live: 64
    Protocol: ICMP (0x01)
    Header checksum: 0x268b [correct]
        Good: True
        Bad : False
    Source: 10.0.0.7 (10.0.0.7)
    Destination: 10.0.0.24 (10.0.0.24)
Internet Control Message Protocol
    Type: 8 (Echo (ping) request)
    Code: 0 
    Checksum: 0xe759 [correct]
    Identifier: 0x5324
    Sequence number: 0x0003
    Data (56 bytes)

0000  54 55 58 10 00 24 00 15 00 15 2c 96 08 00 45 00   TUX..$....,...E.
0010  00 54 00 00 40 00 40 01 26 8b 0a 00 00 07 0a 00   .T..@.@.&.......
0020  00 18 08 00 e7 59 53 24 00 03 63 c5 9e 44 ce 71   .....YS$..c..D.q
0030  02 00 08 09 0a 0b 0c 0d 0e 0f 10 11 12 13 14 15   ................
0040  16 17 18 19 1a 1b 1c 1d 1e 1f 20 21 22 23 24 25   .......... !"#$%
0050  26 27 28 29 2a 2b 2c 2d 2e 2f 30 31 32 33 34 35   &'()*+,-./012345
0060  36 37                                             67
No.     Time        Source                Destination           Protocol Info
     21 18.367913   10.0.0.24             10.0.0.7              ICMP     Echo (ping) reply

Frame 21 (98 bytes on wire, 98 bytes captured)
    Arrival Time: Jun 25, 2006 19:18:27.163178000
    Time delta from previous packet: 0.002940000 seconds
    Time since reference or first frame: 18.367913000 seconds
    Frame Number: 21
    Packet Length: 98 bytes
    Capture Length: 98 bytes
    Protocols in frame: eth:ip:icmp:data
Ethernet II, Src: 54:55:58:10:00:24 (54:55:58:10:00:24), Dst: IntelCor_15:2c:96 (00:15:00:15:2c:96)
    Destination: IntelCor_15:2c:96 (00:15:00:15:2c:96)
    Source: 54:55:58:10:00:24 (54:55:58:10:00:24)
    Type: IP (0x0800)
Internet Protocol, Src: 10.0.0.24 (10.0.0.24), Dst: 10.0.0.7 (10.0.0.7)
    Version: 4
    Header length: 20 bytes
    Differentiated Services Field: 0x00 (DSCP 0x00: Default; ECN: 0x00)
        0000 00.. = Differentiated Services Codepoint: Default (0x00)
        .... ..0. = ECN-Capable Transport (ECT): 0
        .... ...0 = ECN-CE: 0
    Total Length: 84
    Identification: 0x0000 (0)
    Flags: 0x04 (Don't Fragment)
        0... = Reserved bit: Not set
        .1.. = Don't fragment: Set
        ..0. = More fragments: Not set
    Fragment offset: 0
    Time to live: 64
    Protocol: ICMP (0x01)
    Header checksum: 0x268b [correct]
        Good: True
        Bad : False
    Source: 10.0.0.24 (10.0.0.24)
    Destination: 10.0.0.7 (10.0.0.7)
Internet Control Message Protocol
    Type: 0 (Echo (ping) reply)
    Code: 0 
    Checksum: 0xef59 [correct]
    Identifier: 0x5324
    Sequence number: 0x0003
    Data (56 bytes)

0000  00 15 00 15 2c 96 54 55 58 10 00 24 08 00 45 00   ....,.TUX..$..E.
0010  00 54 00 00 40 00 40 01 26 8b 0a 00 00 18 0a 00   .T..@.@.&.......
0020  00 07 00 00 ef 59 53 24 00 03 63 c5 9e 44 ce 71   .....YS$..c..D.q
0030  02 00 08 09 0a 0b 0c 0d 0e 0f 10 11 12 13 14 15   ................
0040  16 17 18 19 1a 1b 1c 1d 1e 1f 20 21 22 23 24 25   .......... !"#$%
0050  26 27 28 29 2a 2b 2c 2d 2e 2f 30 31 32 33 34 35   &'()*+,-./012345
0060  36 37                                             67
No.     Time        Source                Destination           Protocol Info
     22 19.369161   10.0.0.7              10.0.0.24             ICMP     Echo (ping) request

Frame 22 (98 bytes on wire, 98 bytes captured)
    Arrival Time: Jun 25, 2006 19:18:28.164426000
    Time delta from previous packet: 1.001248000 seconds
    Time since reference or first frame: 19.369161000 seconds
    Frame Number: 22
    Packet Length: 98 bytes
    Capture Length: 98 bytes
    Protocols in frame: eth:ip:icmp:data
Ethernet II, Src: IntelCor_15:2c:96 (00:15:00:15:2c:96), Dst: 54:55:58:10:00:24 (54:55:58:10:00:24)
    Destination: 54:55:58:10:00:24 (54:55:58:10:00:24)
    Source: IntelCor_15:2c:96 (00:15:00:15:2c:96)
    Type: IP (0x0800)
Internet Protocol, Src: 10.0.0.7 (10.0.0.7), Dst: 10.0.0.24 (10.0.0.24)
    Version: 4
    Header length: 20 bytes
    Differentiated Services Field: 0x00 (DSCP 0x00: Default; ECN: 0x00)
        0000 00.. = Differentiated Services Codepoint: Default (0x00)
        .... ..0. = ECN-Capable Transport (ECT): 0
        .... ...0 = ECN-CE: 0
    Total Length: 84
    Identification: 0x0000 (0)
    Flags: 0x04 (Don't Fragment)
        0... = Reserved bit: Not set
        .1.. = Don't fragment: Set
        ..0. = More fragments: Not set
    Fragment offset: 0
    Time to live: 64
    Protocol: ICMP (0x01)
    Header checksum: 0x268b [correct]
        Good: True
        Bad : False
    Source: 10.0.0.7 (10.0.0.7)
    Destination: 10.0.0.24 (10.0.0.24)
Internet Control Message Protocol
    Type: 8 (Echo (ping) request)
    Code: 0 
    Checksum: 0x8a48 [correct]
    Identifier: 0x5324
    Sequence number: 0x0004
    Data (56 bytes)

0000  54 55 58 10 00 24 00 15 00 15 2c 96 08 00 45 00   TUX..$....,...E.
0010  00 54 00 00 40 00 40 01 26 8b 0a 00 00 07 0a 00   .T..@.@.&.......
0020  00 18 08 00 8a 48 53 24 00 04 64 c5 9e 44 2a 82   .....HS$..d..D*.
0030  02 00 08 09 0a 0b 0c 0d 0e 0f 10 11 12 13 14 15   ................
0040  16 17 18 19 1a 1b 1c 1d 1e 1f 20 21 22 23 24 25   .......... !"#$%
0050  26 27 28 29 2a 2b 2c 2d 2e 2f 30 31 32 33 34 35   &'()*+,-./012345
0060  36 37                                             67
No.     Time        Source                Destination           Protocol Info
     23 19.371443   10.0.0.24             10.0.0.7              ICMP     Echo (ping) reply

Frame 23 (98 bytes on wire, 98 bytes captured)
    Arrival Time: Jun 25, 2006 19:18:28.166708000
    Time delta from previous packet: 0.002282000 seconds
    Time since reference or first frame: 19.371443000 seconds
    Frame Number: 23
    Packet Length: 98 bytes
    Capture Length: 98 bytes
    Protocols in frame: eth:ip:icmp:data
Ethernet II, Src: 54:55:58:10:00:24 (54:55:58:10:00:24), Dst: IntelCor_15:2c:96 (00:15:00:15:2c:96)
    Destination: IntelCor_15:2c:96 (00:15:00:15:2c:96)
    Source: 54:55:58:10:00:24 (54:55:58:10:00:24)
    Type: IP (0x0800)
Internet Protocol, Src: 10.0.0.24 (10.0.0.24), Dst: 10.0.0.7 (10.0.0.7)
    Version: 4
    Header length: 20 bytes
    Differentiated Services Field: 0x00 (DSCP 0x00: Default; ECN: 0x00)
        0000 00.. = Differentiated Services Codepoint: Default (0x00)
        .... ..0. = ECN-Capable Transport (ECT): 0
        .... ...0 = ECN-CE: 0
    Total Length: 84
    Identification: 0x0000 (0)
    Flags: 0x04 (Don't Fragment)
        0... = Reserved bit: Not set
        .1.. = Don't fragment: Set
        ..0. = More fragments: Not set
    Fragment offset: 0
    Time to live: 64
    Protocol: ICMP (0x01)
    Header checksum: 0x268b [correct]
        Good: True
        Bad : False
    Source: 10.0.0.24 (10.0.0.24)
    Destination: 10.0.0.7 (10.0.0.7)
Internet Control Message Protocol
    Type: 0 (Echo (ping) reply)
    Code: 0 
    Checksum: 0x9248 [correct]
    Identifier: 0x5324
    Sequence number: 0x0004
    Data (56 bytes)

0000  00 15 00 15 2c 96 54 55 58 10 00 24 08 00 45 00   ....,.TUX..$..E.
0010  00 54 00 00 40 00 40 01 26 8b 0a 00 00 18 0a 00   .T..@.@.&.......
0020  00 07 00 00 92 48 53 24 00 04 64 c5 9e 44 2a 82   .....HS$..d..D*.
0030  02 00 08 09 0a 0b 0c 0d 0e 0f 10 11 12 13 14 15   ................
0040  16 17 18 19 1a 1b 1c 1d 1e 1f 20 21 22 23 24 25   .......... !"#$%
0050  26 27 28 29 2a 2b 2c 2d 2e 2f 30 31 32 33 34 35   &'()*+,-./012345
0060  36 37                                             67
No.     Time        Source                Destination           Protocol Info
     25 20.373154   10.0.0.7              10.0.0.24             ICMP     Echo (ping) request

Frame 25 (98 bytes on wire, 98 bytes captured)
    Arrival Time: Jun 25, 2006 19:18:29.168419000
    Time delta from previous packet: 1.001711000 seconds
    Time since reference or first frame: 20.373154000 seconds
    Frame Number: 25
    Packet Length: 98 bytes
    Capture Length: 98 bytes
    Protocols in frame: eth:ip:icmp:data
Ethernet II, Src: IntelCor_15:2c:96 (00:15:00:15:2c:96), Dst: 54:55:58:10:00:24 (54:55:58:10:00:24)
    Destination: 54:55:58:10:00:24 (54:55:58:10:00:24)
    Source: IntelCor_15:2c:96 (00:15:00:15:2c:96)
    Type: IP (0x0800)
Internet Protocol, Src: 10.0.0.7 (10.0.0.7), Dst: 10.0.0.24 (10.0.0.24)
    Version: 4
    Header length: 20 bytes
    Differentiated Services Field: 0x00 (DSCP 0x00: Default; ECN: 0x00)
        0000 00.. = Differentiated Services Codepoint: Default (0x00)
        .... ..0. = ECN-Capable Transport (ECT): 0
        .... ...0 = ECN-CE: 0
    Total Length: 84
    Identification: 0x0000 (0)
    Flags: 0x04 (Don't Fragment)
        0... = Reserved bit: Not set
        .1.. = Don't fragment: Set
        ..0. = More fragments: Not set
    Fragment offset: 0
    Time to live: 64
    Protocol: ICMP (0x01)
    Header checksum: 0x268b [correct]
        Good: True
        Bad : False
    Source: 10.0.0.7 (10.0.0.7)
    Destination: 10.0.0.24 (10.0.0.24)
Internet Control Message Protocol
    Type: 8 (Echo (ping) request)
    Code: 0 
    Checksum: 0xeb37 [correct]
    Identifier: 0x5324
    Sequence number: 0x0005
    Data (56 bytes)

0000  54 55 58 10 00 24 00 15 00 15 2c 96 08 00 45 00   TUX..$....,...E.
0010  00 54 00 00 40 00 40 01 26 8b 0a 00 00 07 0a 00   .T..@.@.&.......
0020  00 18 08 00 eb 37 53 24 00 05 65 c5 9e 44 c8 91   .....7S$..e..D..
0030  02 00 08 09 0a 0b 0c 0d 0e 0f 10 11 12 13 14 15   ................
0040  16 17 18 19 1a 1b 1c 1d 1e 1f 20 21 22 23 24 25   .......... !"#$%
0050  26 27 28 29 2a 2b 2c 2d 2e 2f 30 31 32 33 34 35   &'()*+,-./012345
0060  36 37                                             67
No.     Time        Source                Destination           Protocol Info
     26 20.375481   10.0.0.24             10.0.0.7              ICMP     Echo (ping) reply

Frame 26 (98 bytes on wire, 98 bytes captured)
    Arrival Time: Jun 25, 2006 19:18:29.170746000
    Time delta from previous packet: 0.002327000 seconds
    Time since reference or first frame: 20.375481000 seconds
    Frame Number: 26
    Packet Length: 98 bytes
    Capture Length: 98 bytes
    Protocols in frame: eth:ip:icmp:data
Ethernet II, Src: 54:55:58:10:00:24 (54:55:58:10:00:24), Dst: IntelCor_15:2c:96 (00:15:00:15:2c:96)
    Destination: IntelCor_15:2c:96 (00:15:00:15:2c:96)
    Source: 54:55:58:10:00:24 (54:55:58:10:00:24)
    Type: IP (0x0800)
Internet Protocol, Src: 10.0.0.24 (10.0.0.24), Dst: 10.0.0.7 (10.0.0.7)
    Version: 4
    Header length: 20 bytes
    Differentiated Services Field: 0x00 (DSCP 0x00: Default; ECN: 0x00)
        0000 00.. = Differentiated Services Codepoint: Default (0x00)
        .... ..0. = ECN-Capable Transport (ECT): 0
        .... ...0 = ECN-CE: 0
    Total Length: 84
    Identification: 0x0000 (0)
    Flags: 0x04 (Don't Fragment)
        0... = Reserved bit: Not set
        .1.. = Don't fragment: Set
        ..0. = More fragments: Not set
    Fragment offset: 0
    Time to live: 64
    Protocol: ICMP (0x01)
    Header checksum: 0x268b [correct]
        Good: True
        Bad : False
    Source: 10.0.0.24 (10.0.0.24)
    Destination: 10.0.0.7 (10.0.0.7)
Internet Control Message Protocol
    Type: 0 (Echo (ping) reply)
    Code: 0 
    Checksum: 0xf337 [correct]
    Identifier: 0x5324
    Sequence number: 0x0005
    Data (56 bytes)

0000  00 15 00 15 2c 96 54 55 58 10 00 24 08 00 45 00   ....,.TUX..$..E.
0010  00 54 00 00 40 00 40 01 26 8b 0a 00 00 18 0a 00   .T..@.@.&.......
0020  00 07 00 00 f3 37 53 24 00 05 65 c5 9e 44 c8 91   .....7S$..e..D..
0030  02 00 08 09 0a 0b 0c 0d 0e 0f 10 11 12 13 14 15   ................
0040  16 17 18 19 1a 1b 1c 1d 1e 1f 20 21 22 23 24 25   .......... !"#$%
0050  26 27 28 29 2a 2b 2c 2d 2e 2f 30 31 32 33 34 35   &'()*+,-./012345
0060  36 37                                             67
No.     Time        Source                Destination           Protocol Info
     27 21.377199   10.0.0.7              10.0.0.24             ICMP     Echo (ping) request

Frame 27 (98 bytes on wire, 98 bytes captured)
    Arrival Time: Jun 25, 2006 19:18:30.172464000
    Time delta from previous packet: 1.001718000 seconds
    Time since reference or first frame: 21.377199000 seconds
    Frame Number: 27
    Packet Length: 98 bytes
    Capture Length: 98 bytes
    Protocols in frame: eth:ip:icmp:data
Ethernet II, Src: IntelCor_15:2c:96 (00:15:00:15:2c:96), Dst: 54:55:58:10:00:24 (54:55:58:10:00:24)
    Destination: 54:55:58:10:00:24 (54:55:58:10:00:24)
    Source: IntelCor_15:2c:96 (00:15:00:15:2c:96)
    Type: IP (0x0800)
Internet Protocol, Src: 10.0.0.7 (10.0.0.7), Dst: 10.0.0.24 (10.0.0.24)
    Version: 4
    Header length: 20 bytes
    Differentiated Services Field: 0x00 (DSCP 0x00: Default; ECN: 0x00)
        0000 00.. = Differentiated Services Codepoint: Default (0x00)
        .... ..0. = ECN-Capable Transport (ECT): 0
        .... ...0 = ECN-CE: 0
    Total Length: 84
    Identification: 0x0000 (0)
    Flags: 0x04 (Don't Fragment)
        0... = Reserved bit: Not set
        .1.. = Don't fragment: Set
        ..0. = More fragments: Not set
    Fragment offset: 0
    Time to live: 64
    Protocol: ICMP (0x01)
    Header checksum: 0x268b [correct]
        Good: True
        Bad : False
    Source: 10.0.0.7 (10.0.0.7)
    Destination: 10.0.0.24 (10.0.0.24)
Internet Control Message Protocol
    Type: 8 (Echo (ping) request)
    Code: 0 
    Checksum: 0x2227 [correct]
    Identifier: 0x5324
    Sequence number: 0x0006
    Data (56 bytes)

0000  54 55 58 10 00 24 00 15 00 15 2c 96 08 00 45 00   TUX..$....,...E.
0010  00 54 00 00 40 00 40 01 26 8b 0a 00 00 07 0a 00   .T..@.@.&.......
0020  00 18 08 00 22 27 53 24 00 06 66 c5 9e 44 90 a1   ...."'S$..f..D..
0030  02 00 08 09 0a 0b 0c 0d 0e 0f 10 11 12 13 14 15   ................
0040  16 17 18 19 1a 1b 1c 1d 1e 1f 20 21 22 23 24 25   .......... !"#$%
0050  26 27 28 29 2a 2b 2c 2d 2e 2f 30 31 32 33 34 35   &'()*+,-./012345
0060  36 37                                             67
No.     Time        Source                Destination           Protocol Info
     28 21.379512   10.0.0.24             10.0.0.7              ICMP     Echo (ping) reply

Frame 28 (98 bytes on wire, 98 bytes captured)
    Arrival Time: Jun 25, 2006 19:18:30.174777000
    Time delta from previous packet: 0.002313000 seconds
    Time since reference or first frame: 21.379512000 seconds
    Frame Number: 28
    Packet Length: 98 bytes
    Capture Length: 98 bytes
    Protocols in frame: eth:ip:icmp:data
Ethernet II, Src: 54:55:58:10:00:24 (54:55:58:10:00:24), Dst: IntelCor_15:2c:96 (00:15:00:15:2c:96)
    Destination: IntelCor_15:2c:96 (00:15:00:15:2c:96)
    Source: 54:55:58:10:00:24 (54:55:58:10:00:24)
    Type: IP (0x0800)
Internet Protocol, Src: 10.0.0.24 (10.0.0.24), Dst: 10.0.0.7 (10.0.0.7)
    Version: 4
    Header length: 20 bytes
    Differentiated Services Field: 0x00 (DSCP 0x00: Default; ECN: 0x00)
        0000 00.. = Differentiated Services Codepoint: Default (0x00)
        .... ..0. = ECN-Capable Transport (ECT): 0
        .... ...0 = ECN-CE: 0
    Total Length: 84
    Identification: 0x0000 (0)
    Flags: 0x04 (Don't Fragment)
        0... = Reserved bit: Not set
        .1.. = Don't fragment: Set
        ..0. = More fragments: Not set
    Fragment offset: 0
    Time to live: 64
    Protocol: ICMP (0x01)
    Header checksum: 0x268b [correct]
        Good: True
        Bad : False
    Source: 10.0.0.24 (10.0.0.24)
    Destination: 10.0.0.7 (10.0.0.7)
Internet Control Message Protocol
    Type: 0 (Echo (ping) reply)
    Code: 0 
    Checksum: 0x2a27 [correct]
    Identifier: 0x5324
    Sequence number: 0x0006
    Data (56 bytes)

0000  00 15 00 15 2c 96 54 55 58 10 00 24 08 00 45 00   ....,.TUX..$..E.
0010  00 54 00 00 40 00 40 01 26 8b 0a 00 00 18 0a 00   .T..@.@.&.......
0020  00 07 00 00 2a 27 53 24 00 06 66 c5 9e 44 90 a1   ....*'S$..f..D..
0030  02 00 08 09 0a 0b 0c 0d 0e 0f 10 11 12 13 14 15   ................
0040  16 17 18 19 1a 1b 1c 1d 1e 1f 20 21 22 23 24 25   .......... !"#$%
0050  26 27 28 29 2a 2b 2c 2d 2e 2f 30 31 32 33 34 35   &'()*+,-./012345
0060  36 37                                             67
